:100000000C946C030C9494030C9494030C9494033C
:100010000C9494030C9494030C9494030C94940304
:100020000C9494030C9494030C94470A0C94B60A11
:100030000C9494030C9494030C9494030C949403E4
:100040000C9494030C9494030C9494030C949403D4
:100050000C9494030C9494030C9494030C94E80C67
:100060000C9494030C9494030C9494030C949403B4
:100070000C9494030C9494030C9494030C949403A4
:100080000C9494030C9494030C9494030C94940394
:100090000C9494030C9494030C9494030C94940384
:1000A0000C9494030C9494030C94940300000000AB
:1000B000003E5B4F5B3E3E6B4F6B3E1C3E7C3E1CEE
:1000C000183C7E3C181C577D571C1C5E7F5E1C0034
:1000D000183C1800FFE7C3E7FF0018241800FFE7EB
:1000E000DBE7FF30483A060E2629792926407F05AE
:1000F0000507407F05253F5A3CE73C5A7F3E1C1CC4
:1001000008081C1C3E7F14227F22145F5F005F5F83
:1001100006097F017F006689956A6060606060946F
:10012000A2FFA29408047E040810207E2010080874
:100130002A1C08081C2A08081E101010100C1E0C7F
:100140001E0C30383E3830060E3E0E060000000011
:100150000000005F00000007000700147F147F14F8
:10016000242A7F2A1223130864623649562050003D
:1001700008070300001C2241000041221C002A1C29
:100180007F1C2A08083E0808008070300008080814
:100190000808000060600020100804023E51494534
:1001A0003E00427F400072494949462141494D3352
:1001B0001814127F1027454545393C4A49493141B9
:1001C000211109073649494936464949291E000087
:1001D00014000000403400000008142241141414DC
:1001E0001414004122140802015909063E415D59C8
:1001F0004E7C1211127C7F494949363E41414122D1
:100200007F4141413E7F494949417F090909013EFA
:10021000414151737F0808087F00417F4100204021
:10022000413F017F081422417F404040407F021C33
:10023000027F7F0408107F3E4141413E7F0909094A
:10024000063E4151215E7F09192946264949493216
:1002500003017F01033F4040403F1F2040201F3FDC
:100260004038403F63140814630304780403615961
:10027000494D43007F4141410204081020004141A3
:10028000417F04020102044040404040000307084F
:100290000020545478407F2844443838444444284B
:1002A000384444287F385454541800087E090218F2
:1002B000A4A49C787F0804047800447D400020407A
:1002C000403D007F1028440000417F40007C0478BE
:1002D00004787C080404783844444438FC18242406
:1002E0001818242418FC7C08040408485454542486
:1002F00004043F44243C4040207C1C2040201C3C03
:100300004030403C44281028444C9090907C4464F9
:10031000544C44000836410000007700000041368C
:10032000080002010204023C2623263C1EA1A16112
:10033000123A4040207A3854545559215555794144
:100340002154547841215554784020545579400C1B
:100350001E527212395555555939545454593955FC
:100360005454580000457C410002457D420001453F
:100370007C40F0292429F0F0282528F07C545545AC
:10038000002054547C547C0A097F4932494949323F
:100390003248484832324A4848303A4141217A3A54
:1003A00042402078009DA0A07D39444444393D401E
:1003B00040403D3C24FF2424487E4943662B2FFCCB
:1003C0002F2BFF0929F620C0887E09032054547979
:1003D000410000447D413048484A32384040227A4A
:1003E000007A0A0A727D0D19317D2629292F2826C7
:1003F0002929292630484D402038080808080808CF
:100400000808382F10C8ACBA2F102834FA00007B27
:10041000000008142A142222142A1408950022002D
:1004200095AA005500AAAA55AA55AA000000FF00E7
:10043000101010FF00141414FF001010FF00FF1024
:1004400010F010F0141414FC001414F700FF000056
:10045000FF00FF1414F404FC141417101F10101FD5
:10046000101F1414141F00101010F0000000001FC3
:10047000101010101F10101010F010000000FF10CE
:100480001010101010101010FF10000000FF1400CA
:1004900000FF00FF00001F10170000FC04F41414FC
:1004A0001710171414F404F40000FF00F7141414C8
:1004B00014141414F700F7141414171410101F1048
:1004C0001F141414F4141010F010F000001F101F6B
:1004D0000000001F14000000FC140000F010F010D9
:1004E00010FF10FF141414FF141010101F00000050
:1004F00000F010FFFFFFFFFFF0F0F0F0F0FFFFFF54
:100500000000000000FFFF0F0F0F0F0F38444438AA
:10051000447C2A2A3E147E02020606027E027E02E5
:1005200063554941633844443C04407E201E200604
:10053000027E020299A5E7A5991C2A492A1C4C7241
:1005400001724C304A4D4D303048784830BC625AC8
:10055000463D3E494949007E0101017E2A2A2A2A58
:100560002A44445F444440514A444040444A514034
:100570000000FF0103E080FF000008086B6B0836F5
:1005800012362436060F090F060000181800000066
:100590001010003040FF0101001F01011E00191D55
:1005A0001712003C3C3C3C0000000000F0F89C8E20
:1005B0008783878E9CF8F00000FEFF03030303038C
:1005C000070EFCF80000FEFF0303030303070EFC05
:1005D000F80000FFFF00000000000000FFFF000027
:1005E000FEFF8383838383C7EE7C380000F8FC0E14
:1005F00007030303070EFCF800003F7FE0C0808084
:10060000C0E07F3FFFFF01010101010101FFFF0089
:1006100000FFFF0C0C0C0C1C3E77E3C100007FFFB9
:10062000C0C0C0C0C0E0703F1F00001F3F70E0C0EE
:10063000C0C0E0703F1F00007FFFC1C1C1C1C1E366
:10064000773E1C00001F3F70E0C0C0C0E0703F1F3D
:10065000000000000001FFFF01000000D5F08D1434
:10066000A1C881CFD9F1AF2000080B00020202001F
:100670000009040000010202000005240010010529
:100680002401010104240206052406000107058156
:100690000310004009040100020A000000070502DF
:1006A0000240000007058302400000040309041211
:1006B000010002EF020140412336800001010203E4
:1006C0000141726475696E6F204C4C430041726445
:1006D00075626F790000650D11241FBECFEFDAE05F
:1006E000DEBFCDBF11E0A0E0B1E0E6E0FEE202C077
:1006F00005900D92AE38B107D9F726E0AEE8B1E02B
:1007000001C01D92A53AB207E1F713E0CCE6D3E0B1
:1007100004C02197FE010E942314CB36D107C9F7EC
:100720000E94820D0C9401170C940000E1E5F2E0A8
:10073000A0E0B8E000800EBC8111012C1197A0FD53
:10074000FDCF0192B9F70DB40895480F592F511DEF
:100750001416150684F5803891056CF597FF02C0D4
:1007600090E080E04138510514F040E850E0481B2B
:10077000FB01E770FF2721E001C0220FEA95EAF7AD
:1007800077FF02C0695F7F4FFB0133E0F595E79586
:100790003A95E1F7F695FE2FEE27F795E795E80FE6
:1007A000F91FEF5AFD4F415030F08191DF01119751
:1007B000822B8C93F8CF0895E1E0F0E00E94F103E2
:1007C000319728F068517C4F8F4F9F4FF9CFAB0185
:1007D000FC010E94F103641775078E079F07C8F399
:1007E0000895A7E3B2E02FB7F8947D918D919C9185
:1007F00066B52FBFA89B05C06F3F18F47F5F8F4F72
:100800009F4F22E0660F771F881F991F2A95D1F707
:100810000895FC0180915002882311F13FB7F894AC
:1008200082E08093E9002091F200822F90E0181678
:10083000190614F481E090E0882339F0289844E602
:1008400040934F024091F1004083222339F02091E0
:10085000F200211103C02BE62093E8003FBF08956A
:100860008FEF9FEF08952FB7F89483E08093E9000E
:100870009091E800892F807295FF04C09091F2005A
:1008800080E4891B2FBF08958091470281110DC01C
:1008900082E08093430284E08093440210924602F7
:1008A0001092450281E08093470283E492E008952C
:1008B0008F929F92AF92BF92CF92DF92EF92FF9270
:1008C0000F931F93CF93DF936C017B018A0180917B
:1008D0002201882309F458C080915002882309F42A
:1008E00053C08091420280FF05C08091E000826089
:1008F0008093E000E801B12C8AEFA82E93E0892EC6
:100900002AE3922E209711F4BB20B9F10E94330400
:10091000811106C0AA94AA20B9F10E94DC03F2CF8B
:100920008C171D0611F00CF08C2F9FB7F894809255
:10093000E9002091E80025FD02C09FBFE3CF282FEA
:1009400030E0C21BD30BF701815020F0419140935E
:10095000F100FACFE20EF31EBB2021F09092E800E6
:10096000B12CEBCF8091E80085FDE7CF9092E800B5
:10097000BB24B394209709F3F3CF5D9884E680936A
:100980004102101611063CF081E090E0F6019383DD
:10099000828310E000E0C801DF91CF911F910F9199
:1009A000FF90EF90DF90CF90BF90AF909F908F908F
:1009B0000895CF93DF931F92CDB7DEB76983DC0133
:1009C000ED91FC910280F381E02D41E050E0BE0109
:1009D0006F5F7F4F09950F90DF91CF91089583E06E
:1009E0008093E9008091F200882319F08AE38093D4
:1009F000E80008950E94330490E00895CF93DF93B8
:100A00001F92CDB7DEB7FC018485958597FD08C0A0
:100A10002FEF3FEF358724870F90DF91CF91089517
:100A2000CE0101960E940904019719F4898190E092
:100A3000F3CF8FEF9FEFF0CF0F931F93CF93DF9301
:100A40001F92CDB7DEB78C01FC018485958597FF99
:100A50000BC0CE0101960E940904019771F48981AF
:100A600090E0F80195878487F801848595850F903B
:100A7000DF91CF911F910F9108958FEF9FEFF1CFED
:100A8000FC018485958597FD0BC09FB7F89482E0A3
:100A90008093E9008091F2009FBF90E00196089555
:100AA0009FB7F89482E08093E9008091F2009FBFA5
:100AB00090E0089540913D0250913E0220913B020A
:100AC00030913C0242175307B4F49091E8009570BE
:100AD000E1F39091E80092FD19C08093F1008091BC
:100AE0003D0290913E0201968F739927892B19F44C
:100AF0008EEF8093E80080913D0290913E02019636
:100B000090933E0280933D0281E0089580E0089535
:100B1000DF92EF92FF920F931F93CF93DF93D82E24
:100B20008A01EB017B01E40EF51ECE15DF0559F0BD
:100B3000D7FE12C0FE0184910E945A0521968111B0
:100B4000F4CF0FEF1FEFC801DF91CF911F910F91ED
:100B5000FF90EF90DF9008958881EECF0F931F9361
:100B6000CF93DF931F92CDB7DEB782E0898342E453
:100B700050E069E676E080E80E9488050E9444041F
:100B8000DC0112960D911C910115110589F0D80117
:100B9000ED91FC910280F381E02DBE016F5F7F4FEC
:100BA000C801099597FD04C0F80100851185ECCFB7
:100BB00089810F90DF91CF911F910F91089561501E
:100BC00030F02091F100FC0120830196F8CF2898A5
:100BD00084E680934F020895AF92BF92CF92DF9246
:100BE000EF92FF920F931F93CF93DF936C017B01E2
:100BF0008B01040F151FEB015E01AE18BF08C01773
:100C0000D10759F06991D601ED91FC910190F081E5
:100C1000E02DC6010995892B79F7C501DF91CF91A8
:100C20001F910F91FF90EF90DF90CF90BF90AF900A
:100C300008952D9A0895BC0190E080E0AB01FC017D
:100C40000E94F10341505109E109F10928F068516E
:100C50007C4F8F4F9F4FF6CFAB01FC010E94F103F9
:100C6000641775078E079F07C8F308958FB18095A5
:100C7000807F669B88601C9B84600895CF93C82FFB
:100C80000E943606982F9C2381E09C1380E0CF9130
:100C9000089580E00C94960380389105B8F4603490
:100CA0007105A0F420E191E061FD94E060FD990FF1
:100CB00062FD9295687F269FD0011124A80FAF5A3C
:100CC000BD4F8C9140FF03C0892B8C930895909564
:100CD0008923FBCF2F923F924F925F926F927F9228
:100CE0008F929F92AF92BF92CF92DF92EF92FF923C
:100CF0000F931F93CF93DF937C014B01C42FD0E060
:100D000081E090E06C01CC1ADD0A662477246C1A2D
:100D10007D0A660C771C10E000E0AA24A394B12C95
:100D2000822F8470582E822F8270482E822F8870D6
:100D3000382E2170222E0C171D070CF061C0D7FC35
:100D400006C0219782E0680E711CC60CD71C0F5F8D
:100D50001F4F82E0A80EB11CCA0CDB1C552091F07D
:100D600041E0BE01680D791DC701800F911F0E94EF
:100D70004C0641E0B401600F711FCE018E0D9F1D26
:100D80000E944C06442091F041E0B4016C1B7D0BA5
:100D9000C701800F911F0E944C0641E0B401601B07
:100DA000710BCE018E0D9F1D0E944C06332091F0D9
:100DB00041E0B401600F711FC7018C1B9D0B0E94A5
:100DC0004C0641E0BE01680D791DC701801B910BE7
:100DD0000E944C06222009F4AECF41E0B401601B12
:100DE000710BC7018C1B9D0B0E944C0641E0B401A6
:100DF0006C1B7D0BC701801B910B0E944C069BCF87
:100E0000DF91CF911F910F91FF90EF90DF90CF90E6
:100E1000BF90AF909F908F907F906F905F904F901A
:100E20003F902F900895EF92FF920F931F93CF93CF
:100E3000DF937C018B01040F111DEB0177FF02C0D2
:100E4000D0E0C0E0C8010134110514F080E490E066
:100E5000C817D9073CF441E0BE01C7010E944C0607
:100E60002196F0CFDF91CF911F910F91FF90EF90DE
:100E700008955F926F927F928F929F92AF92BF92EE
:100E8000CF92DF92EF92FF920F931F93CF93DF9356
:100E9000EC017B01142F722E602E660C542E561816
:100EA000802E912C5401A80EB91E6034710520F4D7
:100EB000452DC5010E94A5036701C70CD11CB601D1
:100EC000615071096034710520F4452DC5010E94FF
:100ED000A5037618E80CF91C472DB701CE010E9436
:100EE0001307C10FD11D472DB701CE0101970E94F5
:100EF000130721E0402FB701C5010E946A06C819F7
:100F0000D909219722E0402FB701CE010E946A063D
:100F1000C818D90881E0C81AD10824E0402FB601CA
:100F2000CE010E946A0628E0402FB601C501DF917C
:100F3000CF911F910F91FF90EF90DF90CF90BF90D6
:100F4000AF909F908F907F906F905F900C946A0607
:100F50002F923F924F925F926F927F928F929F92C9
:100F6000AF92BF92CF92DF92EF92FF920F931F93B7
:100F7000CF93DF9300D000D0CDB7DEB76C012B014B
:100F80002A83242F30E03C832B8381E090E07C0196
:100F9000E21AF30A1901319421943108220C331C0E
:100FA000712C612CAA24A394B12C31E0300F398329
:100FB0008B819C81681679060CF040C0F7FC08C054
:100FC00001979C838B8392E0290E311CE20CF31C69
:100FD0002FEF621A720A32E0A30EB11CEA0CFB1C5E
:100FE0004B81440FB2018B819C81681B790B102FC0
:100FF0001A0D4201861897089A81913081F429814F
:10100000420FC601860D971D0E941307412FB401A0
:101010008B819C818C0D9D1D0E941307C9CF398146
:10102000430FC601861997090E941307412FB40187
:10103000C6012B813C81821B930BEECF0F900F904A
:101040000F900F90DF91CF911F910F91FF90EF9034
:10105000DF90CF90BF90AF909F908F907F906F90D8
:101060005F904F903F902F9008954F925F926F92B4
:101070007F928F929F92AF92BF92CF92DF92EF9228
:10108000FF920F931F93CF93DF934C017B01442E6C
:10109000C22F502E802F880FA42EA81A10E06801AE
:1010A000C80CD91C3601AC0CBD2CB11C6A147B04D5
:1010B0004CF44C2FB701C3010E9413078FEF681A3D
:1010C000780AF4CFD0E0C801880F991FC81BD90B4C
:1010D0002197E00EF11E840C911CC401801B910B22
:1010E0008E0121E0452DB70101970E94A80722E05B
:1010F000452DB701C6010E94A807DF91CF911F912E
:101100000F91FF90EF90DF90CF90BF90AF909F90A6
:101110008F907F906F905F904F9008952F923F92A5
:101120004F925F926F927F928F929F92AF92BF92F7
:10113000CF92DF92EF92FF920F931F93CF93DF93A3
:1011400000D000D000D01F92CDB7DEB76D30D9F0FF
:101150003090150140902D0250902E02832D90E08A
:101160009F838E836A3051F510922C0210922B02CD
:1011700023E0880F991F2A95E1F7480E591E5092D7
:101180002E0240922D0281E090E027960FB6F8944F
:10119000DEBF0FBECDBFDF91CF911F910F91FF90AA
:1011A000EF90DF90CF90BF90AF909F908F907F9007
:1011B0006F905F904F903F902F900895A0902B02DA
:1011C000B0902C0295E0699FB0011124FB01E45519
:1011D000FF4F3F016501212CF5E02F1629F1C301D6
:1011E0000196F301F491F9833C01420128E02A833E
:1011F000898181708D8310E000E00315D0F4F8013F
:10120000EC0DFD1DFC83EB83F12CE12CE31470F459
:10121000B4016E0D7F1D4D818B819C810E944C0617
:10122000FFEFEF1AFF0AF2CF1982DFCF0F5F1F4FD8
:10123000E4CF2981269529838A8181508A83EE8192
:10124000FF818E0E9F1E8111D3CF2394CE0EDF1E01
:10125000F6E02F12C1CFC501329C800D911D1124E3
:1012600090932C0280932B028ECF0F9300E020E20C
:1012700048E00E9435080F9108950F9300E028E0A0
:1012800040E20E9435080F9108950F9300E020E29C
:1012900048E00E9439070F9108950F9300E028E07D
:1012A00040E20E9439070F910895CF92DF92EF92AA
:1012B000FF920F931F93CF93DF93EC018C01000FEC
:1012C000111FF801E15DFE4F0190F081E02DE080FB
:1012D000F180C280D380C230D10520F4B601C701AD
:1012E0000E943D092297229720F4B601C7010E946F
:1012F0003509F801E95DFE4F60817181072E000C10
:10130000880B990B0E9402136B017C0120E030E0F6
:1013100040E05FE30E948E1320E034E244E759E4AA
:101320000E94F311A70196010E945F120E94D11240
:101330006150710982E080932A0280E480939000DA
:101340007093990060939800DF91CF911F910F9156
:10135000FF90EF90DF90CF900895089590E080E0A7
:101360000895FC0101900020E9F73197AF01481B77
:10137000590BBC0181EA96E00C94EC050C947911B0
:1013800081E08093150188E090E090932C02809397
:101390002B0290932E0280932D028CE591E00E9407
:1013A000B10988E190E090932C0280932B0284E1B4
:1013B00090E090932E0280932D0280919F018F9355
:1013C00080919E018F9387E691E09F938F938EE8A3
:1013D00091E09F938F930E9429148EE891E00E94E0
:1013E000B10910922C0210922B0210922E02109230
:1013F0002D02ECE0F1E062817381808191810E9495
:101400004D09E8E0F1E062817381808191810E9461
:101410004D09E4E0F1E062817381808191810E9455
:1014200045090F900F900F900F900F900F90E0E0F4
:10143000F1E062817381808191810C9445090E9461
:1014400069112091240230912502F901EE0FFF1F4E
:10145000EA55FE4F64E070E00E94FB1391838083A5
:101460002F5F3F4F309325022093240280919E01ED
:1014700090919F01019690939F0180939E011092FD
:1014800027021092260281E08093280208951F927D
:101490000F920FB60F9211248F939F938091E100CA
:1014A0009091E100937F9093E10083FF0FC0109231
:1014B000E90091E09093EB001092EC0092E390939E
:1014C000ED001092500298E09093F00082FF22C04D
:1014D00093E09093E9009091F200992319F09AE338
:1014E0009093E80090914102992341F0909141023C
:1014F000915090934102911101C05D9A90914F02D9
:10150000992341F090914F02915090934F02911185
:1015100001C0289A84FF18C08091E2008E7E81600D
:101520008093E2008091E1008F7E8093E1008091C2
:1015300042028E7E8061809342029F918F910F9034
:101540000FBE0F901F90189580FFF7CF8091E2009B
:101550008E7E80618093E2008091E1008E7E809398
:10156000E100809142028E7E8160E5CF1F920F9252
:101570000FB60F921124CF92DF92EF92FF920F934A
:101580001F932F933F934F935F936F937F938F930B
:101590009F93AF93BF93EF93FF93CF93DF93CDB719
:1015A000DEB76C97DEBFCDBF1092E9008091E800F6
:1015B00083FF25C068E0CE0145960E94DF0582EFDB
:1015C0008093E8008D8987FF39C09091E80090FFF3
:1015D000FCCF982F907609F034C19E894F89588DA1
:1015E0002F89F88C911131C0803861F580914002CB
:1015F0008093F1001092F1008EEF8093E8006C96DA
:101600000FB6F894DEBF0FBECDBFDF91CF91FF9133
:10161000EF91BF91AF919F918F917F916F915F916A
:101620004F913F912F911F910F91FF90EF90DF907D
:10163000CF900F900FBE0F901F9018959EEF909334
:10164000E800C7CF1092F100D5CF913059F4811145
:10165000D3CF4130510581F6809140028D7F809338
:101660004002CACF933049F48111C6CF41305105B1
:1016700019F6809140028260F2CF953041F480915A
:10168000E80080FFFCCF20682093E300B5CF9630C0
:1016900009F0A9C00B8D1C8D22E01092E900109278
:1016A0003E0210923D02F2122EC010923C021092A5
:1016B0003B020E94AE051F8299E09983FA8291E075
:1016C0009E8390EA98879AEF998720913D02309106
:1016D0003E02275F3F4F3C832B838D831092E900AE
:1016E00010923E0210923D0210933C0200933B0286
:1016F00049E050E0BE016F5F7F4F80E00E948805A7
:101700000E94AE0579CF10933C0200933B020E94E9
:101710004404DC0112960D911C910115110509F488
:1017200051C1D801ED91FC910480F581E02DBE01FD
:101730006B5E7F4FC8010995009709F03EC1F80123
:1017400000851185EACFF3E0FF120EC08F89882350
:1017500009F440C0823061F440E867E08DEC96E027
:101760000E94320D811148CF81E28093EB0047CF78
:10177000813029F440E86BE081EC96E0F1CF8330D2
:1017800099F70E944404DC011296ED90FC908E01C2
:101790000F5F1F4F6801E114F10479F0D701ED915B
:1017A000FC910680F781E02DB801C7010995080F6B
:1017B000111DF701E084F184EECFD8011C92F601EF
:1017C00001900020E9F73197BF016C197D0940E0D5
:1017D000C601C6CF6BEA76E0FB01449150E080E899
:1017E0000E94880509CF973009F4BECF983021F4C4
:1017F00081E08093F10000CF993009F0FDCE837035
:1018000009F0B2CFE8E3F1E081E031E096E3219125
:10181000222371F08093E9003093EB00DF011197F0
:101820002C912093EC009093ED008F5F873079F737
:101830008EE78093EA001092EA008F89809350022D
:10184000DBCE8B8D9C8D1092E90010923E0210929F
:101850003D0290933C0280933B02898D811192C09E
:101860008E899D89913A49F4813209F07DCF47E014
:1018700050E06BE171E080E0B3CF913209F074CFBA
:10188000833269F48F89988DB0E0A0E080931701CE
:1018900090931801A0931901B0931A01ADCE803234
:1018A00069F48091E80082FFFCCF67E08BE191E072
:1018B0000E94DF058BEF8093E8009ECE823209F014
:1018C0009BCE8F8980932201EEEFFFE78591949163
:1018D0008B3F9C4D51F1E0E0F8E080911B0190912D
:1018E0001C01A0911D01B0911E01803B9440A105F7
:1018F000B105F1F48091220180FD1AC0EE3F8AE02B
:10190000F80789F587E797E79183808380916000E6
:1019100080933F0288E19BE00FB6F894A8958093EE
:1019200060000FBE9093600067CEEEEFFAE0D5CF77
:10193000808191818737974709F05ECEA895809185
:10194000600088618093600080913F028093600016
:10195000EE3F2AE0F20789F08091FE0A9091FF0A9B
:101960009183808349CE808191818737980751F296
:101970009093FF0A8093FE0AC5CF1092FF0A10923F
:10198000FE0A3ACE0E944404DC0112960D911C918D
:101990000115110509F4E8CED801ED91FC910190F3
:1019A000F081E02DBE016B5E7F4FC801099581116A
:1019B00023CEF80100851185EBCF181619060CF41B
:1019C0001BCED2CEF1E0FF12BECE6FEA76E004CF9E
:1019D0000F920FB68F939F93EF93FF9380913202F4
:1019E0008D5F8D3708F08D5780933202E3E3F2E08C
:1019F00080818E4F808391819F4F918382818F4F11
:101A0000828383818F4F8383E7E3F2E080818F5F5E
:101A1000808381818F4F818382818F4F82838381F5
:101A20008F4F83838FB18F6066991C9B88278F3679
:101A300081F480913102981B963068F0E0E0F8E084
:101A400087E78083818388E180936000F093600062
:101A5000FFCF90933102FF91EF919F918F910FBE35
:101A60000F901895EF92FF920F931F93CF93DF93F0
:101A7000F82E192FE62E042F81E0860F880F0E9482
:101A80005A0583E00E945A05CF2DD12FEC0EFD2E72
:101A9000F11CCE15DF05B9F007FF13C0FE018491DC
:101AA0000E945A05182F80E00E945A058123219632
:101AB0008111EFCFDF91CF911F910F91FF90EF90A8
:101AC00008958881EDCF81E0F5CFE1E5F6E013825E
:101AD000128288EE93E0A0E0B0E084839583A68331
:101AE000B78382E491E0918380838FEF9FEF9587A6
:101AF0008487E1EAF6E01382128284E591E0918323
:101B000080830895789483E084BD83E085BD81E07F
:101B100080936E00E1E8F0E083E08083E0E881E01C
:101B20008083E1E983E08083E0E981E08083E1EC88
:101B300087E08083E3EC81E08083E0EC82E08083D7
:101B4000E2EC81E08083EAE787E08083806880833D
:101B50001092500210924002109242028091D700DF
:101B600081608093D70080EA8093D80089B5806136
:101B700089BD89B5826089BD09B400FEFDCF0E9490
:101B8000DC038091D8008F7C80618093D8008091A5
:101B9000E000807F8093E0008091E1008E7E809362
:101BA000E1008DE08093E200559A209A81EC8093C9
:101BB0007C0085B1806F85B984B1877E84B984B19A
:101BC000876E84B95E9A5F988AB1806D8AB9769A79
:101BD0006E9881B3806F81BB899880B38D7080BB14
:101BE00080E58CBD81E08DBD85E090E00E941B0604
:101BF0005F9A85E090E00E941B065E985C98ECE599
:101C0000F6E084918EBD00000DB407FEFDCF319645
:101C100026E0E936F207A9F75C9A81E88093640030
:101C2000809165008160809365000E94490680E88C
:101C30000E943E06882381F05C9885EA8EBD0000F4
:101C40000DB407FEFDCF5C9A2E982F982D9881E059
:101C500083BF889513BEFCCF84E00E943E06882394
:101C600009F448C02D9884E80E943E068823E1F0DC
:101C70000E94190688EC90E00E941B062F9882E0D3
:101C800090E00E9479118F3F29F06FEF82E090E0A1
:101C90000E94811184EF91E00E941B062F9A84E834
:101CA0000E943E068111FBCF84E10E943E068823FC
:101CB000E1F00E94190688EC90E00E941B062E9825
:101CC00082E090E00E947911882329F060E082E0B0
:101CD00090E00E94811184EF91E00E941B062E9AF1
:101CE00084E10E943E068111FBCF88EC90E00E94C7
:101CF0001B06B2CF0E94190682E090E00E94BE0946
:101D0000882309F459C03E9A3F9A81E090E00E94EE
:101D1000BE09482F4470942E81FF12C041112E98A5
:101D2000C1EFDFEF08E010E068E5862E80E40E9456
:101D30003E06882309F443C02E9A2F9A0E94190662
:101D400082E390E00E941B060E9436068111F8CFC4
:101D5000109290008AE08093910081E280931001BC
:101D6000F1E54F2EF2E05F2EA6E12A2E312C00E1A4
:101D700010E07724739465E0662E7FE1E72EF12C66
:101D8000E5E3CE2ED12C8FB7F894409133025091D9
:101D9000340260913502709136028FBF8091A201AA
:101DA000882309F4CDC01092A201E0E0F0E0EF2B0F
:101DB00051F30E940000DDCF3E983F98A6CF9920B6
:101DC00029F0C430D10511F42E9A2F9881E00E9499
:101DD00096039E01D7FF04C0222733272C1B3D0BFF
:101DE00027703327CE01D7FD079653E09595879549
:101DF0005A95E1F7D7FF05C00197F801E21BF30BF5
:101E00009F01BC017695762F6627779567956F5A67
:101E10007D4FF12CE12C3801621A730A8E3FFFEFDF
:101E20009F0709F43DC08E9CD0018F9CB00D1124FA
:101E300050E040E0A455BA4F5B01E0E8AE0EB11CA3
:101E40008F3F980791F0FD01E40FF51FE4916B01BE
:101E5000C40ED51EF0E01F01022E01C0220C0A9410
:101E6000EAF7F60154882528248A2115310599F0CE
:101E7000FD01E40FF51FE4916501C40ED51EF0E0ED
:101E80001F01062C02C0359427940A94E2F7F6014C
:101E900054882528248A4F5F5F4F4835510581F6C5
:101EA000019660587F4FEA94EF2809F045C00E94E0
:101EB00049068FE090E00E941B062196C931D105AA
:101EC00009F034CF992011F02F9A2D9880E991E0F4
:101ED0000E941B060E94190681E090E00E94BE0944
:101EE00080FF2ECF8AE090E00E94BE099FEF980FFE
:101EF0009E3F08F025CF22E330E030932C02209360
:101F00002B0228E330E030932E0220932D02CBE009
:101F1000D0E0682F81EA96E00E948E08CE010E94F0
:101F2000BE092196C131D105A1F70E94490688EE6C
:101F300093E00E941B0604CFEE24E394F12C6ECFB5
:101F40009091A301242F291B922F20911001921709
:101F500040F49F5F921708F028CF73BE889513BE98
:101F600024CF7092A2014093A3012091A00130914F
:101F7000A1012F5F3F4F3093A1012093A001F201F7
:101F800081118FEF00248193819381938193039436
:101F9000D1F710922E0210922D0210922C02109264
:101FA0002B0280912A02882339F0815080932A02E3
:101FB000811102C01092900080911601882359F17E
:101FC00010932C0200932B0230922E0220922D02AD
:101FD00082E0809315018BE691E00E94B109709236
:101FE0001501F0922C02E0922B02D0922E02C092A8
:101FF0002D0283E791E00E94B10988E00E943E062D
:10200000882331F010921601709230020E94C009AC
:102010000E944906CACE80912F02882349F110936D
:102020002C0200932B0230922E0220922D0282E08D
:10203000809315018BE691E00E94B1097092150121
:10204000F0922C02E0922B02D0922E02C0922D022E
:102050008EE791E00E94B10988E00E943E06882345
:10206000B9F2109216017092300210922F02CECF68
:1020700080913002882361F280912902811160C031
:1020800080912802811103C00E941F0ABFCFC09116
:102090002602D09127022097E9F5809113019091B3
:1020A000140101969093140180931301209124024E
:1020B000309125028217930729F41092280270921A
:1020C0002902A4CF880F991FFC01EA55FE4FC08159
:1020D000D181FE01EE0FFF1FE15DFE4F0190F08107
:1020E000E02DA080B18082809380C230D10520F4A1
:1020F000B401C5010E944D092297229720F4B40132
:10210000C5010E9445094EE150E0509327024093DB
:1021100026027CCFCE010A97449760F4E091130128
:10212000F0911401EE0FFF1FEA55FE4F808191815F
:102130000E9455092197D0932702C093260266CFAB
:1021400080E80E943E06882309F444C090E080E0C5
:102150000E945509109212011092110180911101F3
:10216000909112018F3F980709F450CFE091A4019C
:10217000F091A501EE0FFF1FEA55FE4F208131813E
:1021800060922A028217930709F04DC080E4809381
:102190009000E1EEF4E0F0939900E09398008091D4
:1021A000A4019091A50101969093A5018093A401AB
:1021B00020912402309125028217930721F4109276
:1021C00029020E941F0A8FEF9FEF909312018093C4
:1021D00011011CCF80E10E943E06882359F081E066
:1021E00090E00E94550981E090E090931201809365
:1021F0001101B4CF80E20E943E06882339F082E0CC
:1022000090E00E94550982E090E0EFCF80E40E94C8
:102210003E06882309F4A2CF83E090E00E9455098E
:1022200083E090E0E2CFF0E4F09390004FE057E2DB
:102230005093990040939800B2CF8F929F92AF92A3
:10224000BF92CF92DF92EF92FF92CF93DF93EC0198
:10225000688179818A819B8161157105810591056C
:1022600021F464E279ED8BE597E02DE133EF41E075
:1022700050E00E948F1149015A019B01AC01A7EA6D
:10228000B1E40E94AE116B017C01ACEEB4EFA5018C
:1022900094010E94BC11DC01CB018C0D9D1DAE1D73
:1022A000BF1DB7FF03C00197A109B0488883998378
:1022B000AA83BB839F77DF91CF91FF90EF90DF9050
:1022C000CF90BF90AF909F908F9008950E941D1166
:1022D000089583E291E00E941D110895B0E0A0E00E
:1022E0008093230190932401A0932501B0932601AC
:1022F0000895F999FECF92BD81BDF89A992780B5CE
:102300000895262FF999FECF1FBA92BD81BD20BD39
:102310000FB6F894FA9AF99A0FBE01960895052E11
:1023200097FB1EF400940E94A61157FD07D00E944F
:10233000C11107FC03D04EF40C94A61150954095A2
:10234000309521953F4F4F4F5F4F08959095809561
:10235000709561957F4F8F4F9F4F08950E94E311B5
:10236000A59F900DB49F900DA49F800D911D1124E9
:102370000895B7FF0C94AE110E94AE11821B930B0F
:102380000895A1E21A2EAA1BBB1BFD010DC0AA1FB6
:10239000BB1FEE1FFF1FA217B307E407F50720F0CE
:1023A000A21BB30BE40BF50B661F771F881F991F49
:1023B0001A9469F760957095809590959B01AC0192
:1023C000BD01CF010895A29FB001B39FC001A39F9B
:1023D000700D811D1124911DB29F700D811D11245E
:1023E000911D08955058BB27AA270E940A120C94E9
:1023F00054130E94461338F00E944D1320F039F414
:102400009F3F19F426F40C9443130EF4E095E7FB78
:102410000C943D13E92F0E94651358F3BA17620715
:1024200073078407950720F079F4A6F50C948713B9
:102430000EF4E0950B2EBA2FA02D0B01B9019001DF
:102440000C01CA01A0011124FF27591B99F0593F23
:1024500050F4503E68F11A16F040A22F232F342F6B
:102460004427585FF3CF469537952795A795F040B9
:102470005395C9F77EF41F16BA0B620B730B840BCE
:10248000BAF09150A1F0FF0FBB1F661F771F881F86
:10249000C2F70EC0BA0F621F731F841F48F48795DE
:1024A00077956795B795F7959E3F08F0B0CF9395D0
:1024B000880F08F09927EE0F9795879508950E9449
:1024C00073120C9454130E944D1358F00E9446133B
:1024D00040F029F45F3F29F00C943D1351110C9406
:1024E00088130C9443130E94651368F39923B1F386
:1024F000552391F3951B550BBB27AA27621773072A
:10250000840738F09F5F5F4F220F331F441FAA1FBD
:10251000A9F335D00E2E3AF0E0E832D09150504079
:10252000E695001CCAF72BD0FE2F29D0660F771F27
:10253000881FBB1F261737074807AB07B0E809F00D
:10254000BB0B802DBF01FF2793585F4F3AF09E3F92
:10255000510578F00C943D130C9488135F3FE4F31D
:10256000983ED4F3869577956795B795F7959F5FD5
:10257000C9F7880F911D9695879597F90895E1E021
:10258000660F771F881FBB1F621773078407BA0780
:1025900020F0621B730B840BBA0BEE1F88F7E095DB
:1025A00008950E946D1388F09F5798F0B92F9927CE
:1025B000B751B0F0E1F0660F771F881F991F1AF02E
:1025C000BA95C9F714C0B13091F00E948713B1E0F9
:1025D00008950C948713672F782F8827B85F39F0F8
:1025E000B93FCCF3869577956795B395D9F73EF4C7
:1025F00090958095709561957F4F8F4F9F4F08956F
:10260000E89409C097FB3EF490958095709561958C
:102610007F4F8F4F9F4F9923A9F0F92F96E9BB2742
:102620009395F695879577956795B795F111F8CFBE
:10263000FAF4BB0F11F460FF1BC06F5F7F4F8F4F29
:102640009F4F16C0882311F096E911C0772321F01F
:102650009EE8872F762F05C0662371F096E8862FB7
:1026600070E060E02AF09A95660F771F881FDAF70E
:10267000880F9695879597F9089597F99F6780E851
:1026800070E060E008959FEF80EC089500240A94C4
:102690001616170618060906089500240A9412163D
:1026A0001306140605060895092E0394000C11F470
:1026B000882352F0BB0F40F4BF2B11F460FF04C01D
:1026C0006F5F7F4F8F4F9F4F089557FD9058440F76
:1026D000551F59F05F3F71F04795880F97FB991F81
:1026E00061F09F3F79F0879508951216130614063E
:1026F000551FF2CF4695F1DF08C0161617061806CB
:10270000991FF1CF86957105610508940895E894A5
:10271000BB2766277727CB0197F908950E94A1135D
:102720000C9454130E94461338F00E944D1320F06D
:10273000952311F00C943D130C94431311240C9425
:1027400088130E94651370F3959FC1F3950F50E0B5
:10275000551F629FF001729FBB27F00DB11D639F53
:10276000AA27F00DB11DAA1F649F6627B00DA11DF9
:10277000661F829F2227B00DA11D621F739FB00D9F
:10278000A11D621F839FA00D611D221F749F33270F
:10279000A00D611D231F849F600D211D822F762FA8
:1027A0006A2F11249F5750409AF0F1F088234AF085
:1027B000EE0FFF1FBB1F661F771F881F91505040F1
:1027C000A9F79E3F510580F00C943D130C9488139B
:1027D0005F3FE4F3983ED4F3869577956795B79578
:1027E000F795E7959F5FC1F7FE2B880F911D969592
:1027F000879597F9089597FB072E16F4009407D054
:1028000077FD09D00E940F1407FC05D03EF4909587
:1028100081959F4F0895709561957F4F0895AA1BEC
:10282000BB1B51E107C0AA1FBB1FA617B70710F0BB
:10283000A61BB70B881F991F5A95A9F780959095ED
:10284000BC01CD010895EE0FFF1F0590F491E02D1E
:102850000994AEE0B0E0EFE2F4E10C94D8160D89F3
:102860001E8986E08C831A8309838FEF9FE79E83FE
:102870008D83AE01475E5F4F6F89788DCE010196E3
:102880000E944C142F813885020F131FF80110820B
:102890002E96E4E00C94F416ABE0B0E0E2E5F4E14F
:1028A0000C94CA167C013B018A01FC011782168236
:1028B000838181FFC8C1CE0101965C01F70193813C
:1028C000F30193FD859193FF81913F01882309F4E2
:1028D00053C1853239F493FD859193FF81913F0176
:1028E000853229F4B70190E00E943C16E7CF912C85
:1028F000212C312CFFE1F31538F08B3211F190F4DB
:10290000803209F1833229F137FC3CC020ED280FD9
:102910002A3050F536FE20C08AE0989E200D112402
:10292000922E06C08D3291F0803371F7689430F8A2
:10293000F30193FD859193FF81913F018111DACFDE
:1029400021C0689431F8689432F8F2CF689433F873
:10295000EFCF689434F8ECCFEAE02E9E200D1124DE
:10296000222E689435F8E4CF8E3229F436FC04C167
:10297000689436F8DDCF8C3619F4689437F8D8CFE0
:102980008836B1F2982F9F7D95549330E0F08336CE
:10299000A1F18337C1F1833509F063C02801F2E06A
:1029A0004F0E511CF801C080D180692D70E036FCBB
:1029B00002C06FEF7FEFC6010E9426164C0168949B
:1029C00037F882010AC00C5F1F4FFFE3F9838824A8
:1029D0008394912C6501E89437F833FE2DC0522C76
:1029E0008114910471F5552009F468CFB70180E294
:1029F00090E00E943C165A94F6CFF80180818983BA
:102A00000E5F1F4FE4CF2801F2E04F0E511CF8017A
:102A1000C080D180692D70E036FC02C06FEF7FEF7F
:102A2000C6010E9431164C018201D5CFB70180E268
:102A300090E00E943C162A942814190409F0B0F77B
:102A4000CECFF60137FC859137FE81916F01B7013A
:102A500090E00E943C1651105A94F1E08F1A9108B0
:102A6000BFCF843619F0893609F077C0F80137FEF8
:102A70006BC060817181828193810C5F1F4FF32D48
:102A8000FF763F2E97FF09C09095809570956195D0
:102A90007F4F8F4F9F4F689437F82AE030E0A501B1
:102AA0000E946C16C82ECA188C2C432C36FE0CC003
:102AB000E89440F8C91440F434FE05C032FC03C069
:102AC000F32DFE7E4F2E892C44FE95C0FE01EC0DA9
:102AD000F11D8081803309F087C0242D297E422E8C
:102AE000842D8870582E43FC95C040FE8FC09C2CCE
:102AF000821418F42C0C922C981844FE91C0B70143
:102B000080E390E00E943C1642FE09C088E790E016
:102B100041FE02C088E590E0B7010E943C16C9144E
:102B200008F48AC0CA94D12C9FEFC91AD90ACA0CDA
:102B3000DB1CF60182916F01B70190E00E943C1608
:102B4000AC14BD04B1F74FCF60817181072E000C2A
:102B5000880B990B0E5F1F4F92CFD32CE894D4F8BB
:102B60002AE030E0853739F1232D297FD22E8F36A8
:102B700001F148F48835A9F0F701868197812B96F9
:102B8000E2E10C94E616803749F08837A9F7D4FEC5
:102B900002C06894D2F820E130E00DC06894D4F807
:102BA000F6CF34FE03C0822F8660D82E20E132E0BB
:102BB00002C028E030E0F801D7FE0FC060817181CB
:102BC000828193810C5F1F4FA5010E946C16C82E55
:102BD000CA183D2CE89437F867CF6081718190E086
:102BE00080E00E5F1F4FF0CF42FC02C0839478CF8D
:102BF0008394839475CF842D867809F471CFF6CFB2
:102C0000B70180E290E00E943C1683948214C0F3E6
:102C1000512C73CF522C5818821408F46ECFF8CF71
:102C2000842D867809F47BCF8BE241FE80E247FC5D
:102C30008DE2B70190E071CFB70180E390E00E9490
:102C40003C169A946CCF8FEF9FEF99CFFC010590C3
:102C5000615070400110D8F7809590958E0F9F1F9E
:102C60000895FC016150704001900110D8F78095E3
:102C700090958E0F9F1F08950F931F93CF93DF930F
:102C8000182F092FEB018B8181FD09C01FEF0FEF7A
:102C9000812F902FDF91CF911F910F91089582FF87
:102CA00014C02E813F818C819D81281739073CF407
:102CB000E881F981CF0101969983888310838E8101
:102CC0009F8101969F838E83E3CFE885F985812FCD
:102CD0000995892BA1F3DACFFA01AA27283051F1FF
:102CE000203181F1E8946F936E7F6E5F7F4F8F4F3D
:102CF0009F4FAF4FB1E03ED0B4E03CD0670F781F9C
:102D0000891F9A1FA11D680F791F8A1F911DA11D80
:102D10006A0F711D811D911DA11D20D009F46894B9
:102D20003F912AE0269F11243019305D3193DEF661
:102D3000CF010895462F4770405D4193B3E00FD017
:102D4000C9F7F6CF462F4F70405D4A3318F0495D02
:102D500031FD4052419302D0A9F7EACFB4E0A695E5
:102D60009795879577956795BA95C9F70097610507
:102D7000710508959B01AC010A2E0694579547955D
:102D800037952795BA95C9F7620F731F841F951F52
:102D9000A01D08952F923F924F925F926F927F9263
:102DA0008F929F92AF92BF92CF92DF92EF92FF925B
:102DB0000F931F93CF93DF93CDB7DEB7CA1BDB0B07
:102DC0000FB6F894DEBF0FBECDBF09942A883988AC
:102DD00048885F846E847D848C849B84AA84B984B3
:102DE000C884DF80EE80FD800C811B81AA81B981BF
:102DF000CE0FD11D0FB6F894DEBF0FBECDBFED01D3
:062E00000895F894FFCFD5
:102E060070000F0048000F0050002F005000070010
:102E160010FFFFFFFF0101FFFFFFFF00E1000000C1
:102E260000000001000000C80005010B02AF000C05
:102E36000108010401000100C180810000000000BA
:102E46000000D9045804FA04EF044005FE041C05EA
:102E5600000000008E08EC05AE09AD0943757272DC
:102E6600204C6576656C0025326400415244554D10
:102E7600454D004120544F205354415254004120A7
:0E2E8600544F2054525920414741494E0000FC
:00000001FF
