:020000040000FA
:100000000C946C030C9494030C9494030C9494033C
:100010000C9494030C9494030C9494030C94940304
:100020000C9494030C9494030C94B4080C9423093A
:100030000C9494030C9494030C9494030C949403E4
:100040000C9494030C9494030C9494030C949403D4
:100050000C9494030C9494030C9494030C94550BFB
:100060000C9494030C9494030C9494030C949403B4
:100070000C9494030C9494030C9494030C949403A4
:100080000C9494030C9494030C9494030C94940394
:100090000C9494030C9494030C9494030C94940384
:1000A0000C9494030C9494030C94940300000000AB
:1000B000003E5B4F5B3E3E6B4F6B3E1C3E7C3E1CEE
:1000C000183C7E3C181C577D571C1C5E7F5E1C0034
:1000D000183C1800FFE7C3E7FF0018241800FFE7EB
:1000E000DBE7FF30483A060E2629792926407F05AE
:1000F0000507407F05253F5A3CE73C5A7F3E1C1CC4
:1001000008081C1C3E7F14227F22145F5F005F5F83
:1001100006097F017F006689956A6060606060946F
:10012000A2FFA29408047E040810207E2010080874
:100130002A1C08081C2A08081E101010100C1E0C7F
:100140001E0C30383E3830060E3E0E060000000011
:100150000000005F00000007000700147F147F14F8
:10016000242A7F2A1223130864623649562050003D
:1001700008070300001C2241000041221C002A1C29
:100180007F1C2A08083E0808008070300008080814
:100190000808000060600020100804023E51494534
:1001A0003E00427F400072494949462141494D3352
:1001B0001814127F1027454545393C4A49493141B9
:1001C000211109073649494936464949291E000087
:1001D00014000000403400000008142241141414DC
:1001E0001414004122140802015909063E415D59C8
:1001F0004E7C1211127C7F494949363E41414122D1
:100200007F4141413E7F494949417F090909013EFA
:10021000414151737F0808087F00417F4100204021
:10022000413F017F081422417F404040407F021C33
:10023000027F7F0408107F3E4141413E7F0909094A
:10024000063E4151215E7F09192946264949493216
:1002500003017F01033F4040403F1F2040201F3FDC
:100260004038403F63140814630304780403615961
:10027000494D43007F4141410204081020004141A3
:10028000417F04020102044040404040000307084F
:100290000020545478407F2844443838444444284B
:1002A000384444287F385454541800087E090218F2
:1002B000A4A49C787F0804047800447D400020407A
:1002C000403D007F1028440000417F40007C0478BE
:1002D00004787C080404783844444438FC18242406
:1002E0001818242418FC7C08040408485454542486
:1002F00004043F44243C4040207C1C2040201C3C03
:100300004030403C44281028444C9090907C4464F9
:10031000544C44000836410000007700000041368C
:10032000080002010204023C2623263C1EA1A16112
:10033000123A4040207A3854545559215555794144
:100340002154547841215554784020545579400C1B
:100350001E527212395555555939545454593955FC
:100360005454580000457C410002457D420001453F
:100370007C40F0292429F0F0282528F07C545545AC
:10038000002054547C547C0A097F4932494949323F
:100390003248484832324A4848303A4141217A3A54
:1003A00042402078009DA0A07D39444444393D401E
:1003B00040403D3C24FF2424487E4943662B2FFCCB
:1003C0002F2BFF0929F620C0887E09032054547979
:1003D000410000447D413048484A32384040227A4A
:1003E000007A0A0A727D0D19317D2629292F2826C7
:1003F0002929292630484D402038080808080808CF
:100400000808382F10C8ACBA2F102834FA00007B27
:10041000000008142A142222142A1408950022002D
:1004200095AA005500AAAA55AA55AA000000FF00E7
:10043000101010FF00141414FF001010FF00FF1024
:1004400010F010F0141414FC001414F700FF000056
:10045000FF00FF1414F404FC141417101F10101FD5
:10046000101F1414141F00101010F0000000001FC3
:10047000101010101F10101010F010000000FF10CE
:100480001010101010101010FF10000000FF1400CA
:1004900000FF00FF00001F10170000FC04F41414FC
:1004A0001710171414F404F40000FF00F7141414C8
:1004B00014141414F700F7141414171410101F1048
:1004C0001F141414F4141010F010F000001F101F6B
:1004D0000000001F14000000FC140000F010F010D9
:1004E00010FF10FF141414FF141010101F00000050
:1004F00000F010FFFFFFFFFFF0F0F0F0F0FFFFFF54
:100500000000000000FFFF0F0F0F0F0F38444438AA
:10051000447C2A2A3E147E02020606027E027E02E5
:1005200063554941633844443C04407E201E200604
:10053000027E020299A5E7A5991C2A492A1C4C7241
:1005400001724C304A4D4D303048784830BC625AC8
:10055000463D3E494949007E0101017E2A2A2A2A58
:100560002A44445F444440514A444040444A514034
:100570000000FF0103E080FF000008086B6B0836F5
:1005800012362436060F090F060000181800000066
:100590001010003040FF0101001F01011E00191D55
:1005A0001712003C3C3C3C0000000000F0F89C8E20
:1005B0008783878E9CF8F00000FEFF03030303038C
:1005C000070EFCF80000FEFF0303030303070EFC05
:1005D000F80000FFFF00000000000000FFFF000027
:1005E000FEFF8383838383C7EE7C380000F8FC0E14
:1005F00007030303070EFCF800003F7FE0C0808084
:10060000C0E07F3FFFFF01010101010101FFFF0089
:1006100000FFFF0C0C0C0C1C3E77E3C100007FFFB9
:10062000C0C0C0C0C0E0703F1F00001F3F70E0C0EE
:10063000C0C0E0703F1F00007FFFC1C1C1C1C1E366
:10064000773E1C00001F3F70E0C0C0C0E0703F1F3D
:10065000000000000001FFFF01000000D5F08D1434
:10066000A1C881CFD9F1AF2000080B00020202001F
:100670000009040000010202000005240010010529
:100680002401010104240206052406000107058156
:100690000310004009040100020A000000070502DF
:1006A0000240000007058302400000040309041211
:1006B000010002EF020140412336800001010203E4
:1006C0000141726475696E6F204C4C430041726445
:1006D00075626F790000D20B11241FBECFEFDAE0F4
:1006E000DEBFCDBF11E0A0E0B1E0E6E6F2E202C07D
:1006F00005900D92A635B107D9F725E0A6E5B1E042
:1007000001C01D92AF3DB207E1F713E0CCE6D3E0A4
:1007100004C02197FE010E94530ECB36D107C9F7C2
:100720000E94EF0B0C9431110C940000EBE8F1E007
:10073000A0E0B8E000800EBC8111012C1197A0FD53
:10074000FDCF0192B9F70DB40895480F592F511DEF
:100750001416150684F5803891056CF597FF02C0D4
:1007600090E080E04138510514F040E850E0481B2B
:10077000FB01E770FF2721E001C0220FEA95EAF7AD
:1007800077FF02C0695F7F4FFB0133E0F595E79586
:100790003A95E1F7F695FE2FEE27F795E795E80FE6
:1007A000F91FE557FE4F415030F08191DF0111975D
:1007B000822B8C93F8CF0895E1E0F0E00E94F103E2
:1007C000319728F068517C4F8F4F9F4FF9CFAB0185
:1007D000FC010E94F103641775078E079F07C8F399
:1007E0000895A1E7B1E02FB7F8947D918D919C9188
:1007F00066B52FBFA89B05C06F3F18F47F5F8F4F72
:100800009F4F22E0660F771F881F991F2A95D1F707
:100810000895FC0180918A01882311F13FB7F89473
:1008200082E08093E9002091F200822F90E0181678
:10083000190614F481E090E0882339F0289844E602
:10084000409389014091F1004083222339F02091A7
:10085000F200211103C02BE62093E8003FBF08956A
:100860008FEF9FEF08952FB7F89483E08093E9000E
:100870009091E800892F807295FF04C09091F2005A
:1008800080E4891B2FBF08958091810181110DC0E3
:1008900082E080937D0184E080937E01109280014C
:1008A00010927F0181E0809381018DE791E00895AE
:1008B0008F929F92AF92BF92CF92DF92EF92FF9270
:1008C0000F931F93CF93DF936C017B018A0180917B
:1008D0000D01882309F458C080918A01882309F406
:1008E00053C080917C0180FF05C08091E000826050
:1008F0008093E000E801B12C8AEFA82E93E0892EC6
:100900002AE3922E209711F4BB20B9F10E94330400
:10091000811106C0AA94AA20B9F10E94DC03F2CF8B
:100920008C171D0611F00CF08C2F9FB7F894809255
:10093000E9002091E80025FD02C09FBFE3CF282FEA
:1009400030E0C21BD30BF701815020F0419140935E
:10095000F100FACFE20EF31EBB2021F09092E800E6
:10096000B12CEBCF8091E80085FDE7CF9092E800B5
:10097000BB24B394209709F3F3CF5D9884E680936A
:100980007B01101611063CF081E090E0F6019383A4
:10099000828310E000E0C801DF91CF911F910F9199
:1009A000FF90EF90DF90CF90BF90AF909F908F908F
:1009B0000895CF93DF931F92CDB7DEB76983DC0133
:1009C000ED91FC910280F381E02D41E050E0BE0109
:1009D0006F5F7F4F09950F90DF91CF91089583E06E
:1009E0008093E9008091F200882319F08AE38093D4
:1009F000E80008950E94330490E00895CF93DF93B8
:100A00001F92CDB7DEB7FC018485958597FD08C0A0
:100A10002FEF3FEF358724870F90DF91CF91089517
:100A2000CE0101960E940904019719F4898190E092
:100A3000F3CF8FEF9FEFF0CF0F931F93CF93DF9301
:100A40001F92CDB7DEB78C01FC018485958597FF99
:100A50000BC0CE0101960E940904019771F48981AF
:100A600090E0F80195878487F801848595850F903B
:100A7000DF91CF911F910F9108958FEF9FEFF1CFED
:100A8000FC018485958597FD0BC09FB7F89482E0A3
:100A90008093E9008091F2009FBF90E00196089555
:100AA0009FB7F89482E08093E9008091F2009FBFA5
:100AB00090E008954091770150917801209175015F
:100AC0003091760142175307B4F49091E800957085
:100AD000E1F39091E80092FD19C08093F1008091BC
:100AE00077019091780101968F739927892B19F4DA
:100AF0008EEF8093E80080917701909178010196C4
:100B0000909378018093770181E0089580E00895C3
:100B1000DF92EF92FF920F931F93CF93DF93D82E24
:100B20008A01EB017B01E40EF51ECE15DF0559F0BD
:100B3000D7FE12C0FE0184910E945A0521968111B0
:100B4000F4CF0FEF1FEFC801DF91CF911F910F91ED
:100B5000FF90EF90DF9008958881EECF0F931F9361
:100B6000CF93DF931F92CDB7DEB782E0898342E453
:100B700050E069E676E080E80E9488050E9444041F
:100B8000DC0112960D911C910115110589F0D80117
:100B9000ED91FC910280F381E02DBE016F5F7F4FEC
:100BA000C801099597FD04C0F80100851185ECCFB7
:100BB00089810F90DF91CF911F910F91089561501E
:100BC00030F02091F100FC0120830196F8CF2898A5
:100BD00084E6809389010895AF92BF92CF92DF920D
:100BE000EF92FF920F931F93CF93DF936C017B01E2
:100BF0008B01040F151FEB015E01AE18BF08C01773
:100C0000D10759F06991D601ED91FC910190F081E5
:100C1000E02DC6010995892B79F7C501DF91CF91A8
:100C20001F910F91FF90EF90DF90CF90BF90AF900A
:100C300008952D9A0895BC0190E080E0AB01FC017D
:100C40000E94F10341505109E109F10928F068516E
:100C50007C4F8F4F9F4FF6CFAB01FC010E94F103F9
:100C6000641775078E079F07C8F308958FB18095A5
:100C7000807F669B88601C9B8460089580E00C9454
:100C8000960380389105B8F460347105A0F420E132
:100C900091E061FD94E060FD990F62FD9295687F9F
:100CA000269FD0011124A80FA557BE4F8C9140FF5D
:100CB00003C0892B8C93089590958923FBCF2F92A5
:100CC0003F924F925F926F927F928F929F92AF92DC
:100CD000BF92CF92DF92EF92FF920F931F93CF9329
:100CE000DF937C014B01C42FD0E081E090E06C01E8
:100CF000CC1ADD0A662477246C1A7D0A660C771CF0
:100D000010E000E0AA24A394B12C822F8470582E06
:100D1000822F8270482E822F8870382E2170222ECA
:100D20000C171D070CF061C0D7FC06C0219782E0AC
:100D3000680E711CC60CD71C0F5F1F4F82E0A80EF7
:100D4000B11CCA0CDB1C552091F041E0BE01680DBE
:100D5000791DC701800F911F0E94410641E0B40137
:100D6000600F711FCE018E0D9F1D0E944106442011
:100D700091F041E0B4016C1B7D0BC701800F911F06
:100D80000E94410641E0B401601B710BCE018E0D43
:100D90009F1D0E944106332091F041E0B401600F95
:100DA000711FC7018C1B9D0B0E94410641E0BE01D3
:100DB000680D791DC701801B910B0E9441062220FE
:100DC00009F4AECF41E0B401601B710BC7018C1B6D
:100DD0009D0B0E94410641E0B4016C1B7D0BC701D5
:100DE000801B910B0E9441069BCFDF91CF911F91F9
:100DF0000F91FF90EF90DF90CF90BF90AF909F90BA
:100E00008F907F906F905F904F903F902F900895BC
:100E10002F923F924F925F926F927F928F929F920A
:100E2000AF92BF92CF92DF92EF92FF920F931F93F8
:100E3000CF93DF93EC017B01142FC22ED02EDD0C5B
:100E4000942E9D18602E712C5301A80EB91E492DA9
:100E5000C5010E94A50317012C0C311CB101615082
:100E600071096034710524F4492DC5010E94A50360
:100E7000E60CF71CCD18CE0CDF2CD11C4701260147
:100E800081E4C816D1041CF080E4482E512C84144F
:100E900095044CF441E0B401CE010E9441068FEF6D
:100EA000881A980AECCFC10FD11D4E0181E0881A33
:100EB00091086701C414D5044CF441E0B601C401A3
:100EC0000E9441068FEFC81AD80AF4CF21E0402FC4
:100ED000B701C5010E945F06C619D709219722E014
:100EE000402FB701CE010E945F062618370881E027
:100EF000281A310824E0402FB101CE010E945F067C
:100F000028E0402FB101C501DF91CF911F910F91D2
:100F1000FF90EF90DF90CF90BF90AF909F908F9019
:100F20007F906F905F904F903F902F900C945F0652
:100F30002F923F924F925F926F927F928F929F92E9
:100F4000AF92BF92CF92DF92EF92FF920F931F93D7
:100F5000CF93DF9300D000D000D01F92CDB7DEB783
:100F60006D30D9F0309000014090660150906701DB
:100F7000832D90E09F838E836A3051F51092690132
:100F80001092680123E0880F991F2A95E1F7480E17
:100F9000591E509267014092660181E090E02796C9
:100FA0000FB6F894DEBF0FBECDBFDF91CF911F917A
:100FB0000F91FF90EF90DF90CF90BF90AF909F90F8
:100FC0008F907F906F905F904F903F902F900895FB
:100FD000A0906801B090690195E0699FB00111246B
:100FE000FB01E455FF4F3F016501212CF5E02F1671
:100FF00029F1C3010196F301F491F9833C01420107
:1010000028E02A83898181708D8310E000E0031538
:10101000D0F4F801EC0DFD1DFC83EB83F12CE12CE9
:10102000E31470F4B4016E0D7F1D4D818B819C81A2
:101030000E944106FFEFEF1AFF0AF2CF1982DFCFBD
:101040000F5F1F4FE4CF2981269529838A81815024
:101050008A83EE81FF818E0E9F1E8111D3CF239450
:10106000CE0EDF1EF6E02F12C1CFC501329C800DDF
:10107000911D112490936901809368018ECF08958A
:1010800090E080E008950C943D0E0F93CF93DF9392
:1010900081E08093000188E090E090936901809363
:1010A000680190936701809366014AE050E063E332
:1010B00071E08BED95E00E94EC0588E190E0909363
:1010C00069018093680180E190E0909367018093CB
:1010D00066011F921F928EE391E09F938F93C6E566
:1010E000D1E0DF93CF930E94590E09900020E9F7D9
:1010F000AE014755514066E571E08BED95E00E94E9
:10110000EC0510926901109268011092670110922B
:10111000660103E028E040E267E070E080E590E0EF
:101120000E94080728E040E260E370E080E590E07C
:101130000E94080720E248E060E170E087E490E068
:101140000E94080720E248E060E170E080E790E05C
:101150000E9408070F900F900F900F900F900F9024
:10116000DF91CF910F9108951F920F920FB60F92BA
:1011700011248F939F938091E1009091E100937FE0
:101180009093E10083FF0FC01092E90091E09093EB
:10119000EB001092EC0092E39093ED0010928A0124
:1011A00098E09093F00082FF22C093E09093E900D2
:1011B0009091F200992319F09AE39093E8009091AE
:1011C0007B01992341F090917B01915090937B0199
:1011D000911101C05D9A90918901992341F09091FC
:1011E0008901915090938901911101C0289A84FF3F
:1011F00018C08091E2008E7E81608093E200809131
:10120000E1008F7E8093E10080917C018E7E806181
:1012100080937C019F918F910F900FBE0F901F9034
:10122000189580FFF7CF8091E2008E7E80618093D9
:10123000E2008091E1008E7E8093E10080917C014C
:101240008E7E8160E5CF1F920F920FB60F92112410
:10125000CF92DF92EF92FF920F931F932F933F93C2
:101260004F935F936F937F938F939F93AF93BF93AE
:10127000EF93FF93CF93DF93CDB7DEB76C97DEBFCD
:10128000CDBF1092E9008091E80083FF25C068E09F
:10129000CE0145960E94DF0582EF8093E8008D899C
:1012A00087FF39C09091E80090FFFCCF982F90768F
:1012B00009F034C19E894F89588D2F89F88C91117E
:1012C00031C0803861F580917A018093F1001092ED
:1012D000F1008EEF8093E8006C960FB6F894DEBFB5
:1012E0000FBECDBFDF91CF91FF91EF91BF91AF9135
:1012F0009F918F917F916F915F914F913F912F912E
:101300001F910F91FF90EF90DF90CF900F900FBE45
:101310000F901F9018959EEF9093E800C7CF109202
:10132000F100D5CF913059F48111D3CF413051051F
:1013300081F680917A018D7F80937A01CACF9330B4
:1013400049F48111C6CF4130510519F680917A01D7
:101350008260F2CF953041F48091E80080FFFCCFAD
:1013600020682093E300B5CF963009F0A9C00B8D1B
:101370001C8D22E01092E900109278011092770102
:10138000F2122EC010927601109275010E94AE05E5
:101390001F8299E09983FA8291E09E8390EA988770
:1013A0009AEF99872091770130917801275F3F4F1D
:1013B0003C832B838D831092E90010927801109268
:1013C0007701109376010093750149E050E0BE016A
:1013D0006F5F7F4F80E00E9488050E94AE0579CF45
:1013E00010937601009375010E944404DC0112966B
:1013F0000D911C910115110509F451C1D801ED9110
:10140000FC910480F581E02DBE016B5E7F4FC80129
:101410000995009709F03EC1F80100851185EACFD2
:10142000F3E0FF120EC08F89882309F440C0823098
:1014300061F440E867E08DEC96E00E949F0B81111B
:1014400048CF81E28093EB0047CF813029F440E818
:101450006BE081EC96E0F1CF833099F70E94440471
:10146000DC011296ED90FC908E010F5F1F4F68011A
:10147000E114F10479F0D701ED91FC910680F78138
:10148000E02DB801C7010995080F111DF701E0848F
:10149000F184EECFD8011C92F60101900020E9F70B
:1014A0003197BF016C197D0940E0C601C6CF6BEAD8
:1014B00076E0FB01449150E080E80E94880509CF66
:1014C000973009F4BECF983021F481E08093F10089
:1014D00000CF993009F0FDCE837009F0B2CFEFE074
:1014E000F1E081E031E096E32191222371F08093D5
:1014F000E9003093EB00DF0111972C912093EC0071
:101500009093ED008F5F873079F78EE78093EA0044
:101510001092EA008F8980938A01DBCE8B8D9C8D9F
:101520001092E90010927801109277019093760161
:1015300080937501898D811192C08E899D89913A20
:1015400049F4813209F07DCF47E050E066E071E078
:1015500080E0B3CF913209F074CF833269F48F8980
:10156000988DB0E0A0E08093020190930301A093D6
:101570000401B0930501ADCE803269F48091E8009A
:1015800082FFFCCF67E086E091E00E94DF058BEFF1
:101590008093E8009ECE823209F09BCE8F898093A3
:1015A0000D01EEEFFFE7859194918B3F9C4D51F13A
:1015B000E0E0F8E08091060190910701A091080118
:1015C000B0910901803B9440A105B105F1F48091EF
:1015D0000D0180FD1AC0EE3F8AE0F80789F587E724
:1015E00097E791838083809160008093790188E1FF
:1015F0009BE00FB6F894A895809360000FBE90937F
:10160000600067CEEEEFFAE0D5CF80819181873719
:10161000974709F05ECEA89580916000886180931D
:1016200060008091790180936000EE3F2AE0F2072C
:1016300089F08091FE0A9091FF0A9183808349CEC0
:10164000808191818737980751F29093FF0A8093A8
:10165000FE0AC5CF1092FF0A1092FE0A3ACE0E94EF
:101660004404DC0112960D911C910115110509F439
:10167000E8CED801ED91FC910190F081E02DBE0102
:101680006B5E7F4FC8010995811123CEF80100855B
:101690001185EBCF181619060CF41BCED2CEF1E053
:1016A000FF12BECE6FEA76E004CF0F920FB68F9393
:1016B0009F93EF93FF9380916C018D5F8D3708F0BE
:1016C0008D5780936C01EDE6F1E080818E4F808331
:1016D00091819F4F918382818F4F828383818F4F2E
:1016E0008383E1E7F1E080818F5F808381818F4F89
:1016F000818382818F4F828383818F4F83838FB1D8
:101700008F6066991C9B88278F3681F480916B01CE
:10171000981B963068F0E0E0F8E087E780838183EB
:1017200088E180936000F0936000FFCF90936B019D
:10173000FF91EF919F918F910FBE0F901895EF92AF
:10174000FF920F931F93CF93DF93F82E192FE62E5E
:10175000042F81E0860F880F0E945A0583E00E94C3
:101760005A05CF2DD12FEC0EFD2EF11CCE15DF0525
:10177000B9F007FF13C0FE0184910E945A05182F8B
:1017800080E00E945A05812321968111EFCFDF91DD
:10179000CF911F910F91FF90EF9008958881EDCF29
:1017A00081E0F5CFEBE8F5E01382128288EE93E05A
:1017B000A0E0B0E084839583A683B78389E191E0BC
:1017C000918380838FEF9FEF95878487EBEDF5E022
:1017D000138212828BE291E0918380830895789442
:1017E00083E084BD83E085BD81E080936E00E1E805
:1017F000F0E083E08083E0E881E08083E1E983E05A
:101800008083E0E981E08083E1EC87E08083E3ECA2
:1018100081E08083E0EC82E08083E2EC81E0808301
:10182000EAE787E080838068808310928A011092C3
:101830007A0110927C018091D70081608093D7005B
:1018400080EA8093D80089B5806189BD89B58260BE
:1018500089BD09B400FEFDCF0E94DC038091D80051
:101860008F7C80618093D8008091E000807F80939E
:10187000E0008091E1008E7E8093E1008DE0809316
:10188000E200559A209A81EC80937C0085B1806FAC
:1018900085B984B1877E84B984B1876E84B95E9A34
:1018A0005F988AB1806D8AB9769A6E9881B3806F9D
:1018B00081BB899880B38D7080BB80E58CBD81E051
:1018C0008DBD85E090E00E941B065F9A85E090E068
:1018D0000E941B065E985C98ECE5F6E084918EBD54
:1018E00000000DB407FEFDCF319646E0E936F4075F
:1018F000A9F75C9A81E8809364008091650081601B
:10190000809365000E943E060E94360687FF10C045
:101910005C9885EA8EBD00000DB407FEFDCF5C9A91
:101920002E982F982D9881E083BF889513BEFCCF09
:101930000E94360682FF48C02D980E9436068478A1
:101940008438E1F40E94190688EC90E00E941B069E
:101950002F9882E090E00E943D0E8F3F29F06FEFBC
:1019600082E090E00E94450E84EF91E00E941B0609
:101970002F9A0E94360684788438D9F30E9436065E
:1019800084718431E1F40E94190688EC90E00E9491
:101990001B062E9882E090E00E943D0E882329F0DD
:1019A00060E082E090E00E94450E84EF91E00E94AA
:1019B0001B062E9A0E94360684718431D9F388EC76
:1019C00090E00E941B06B4CF0E94190682E090E0CE
:1019D0000E944308882309F47FC03E9A3F9A81E021
:1019E00090E00E944308582F5470952E81FF10C03C
:1019F00051112E98C1EFDFEF08E010E0A8E58A2E24
:101A00000E94360686FF6BC02E9A2F9A0E941906F6
:101A100082E390E00E941B060E9436068111F8CFF7
:101A2000612CCBE8D1E000E010E080E1E82EF12C61
:101A300096E1C92ED12C22E0522E3FE1A32EB12CEB
:101A400045E3842E912C77247394862DFE01811119
:101A50008FEF002481938193819381930394D1F735
:101A6000109267011092660110926901109268014C
:101A700080910101882309F4F3C0F0926901E0929A
:101A80006801D0926701C09266015092000147E060
:101A900050E062E471E08BED95E00E94EC057092FD
:101AA0000001B0926901A092680190926701809252
:101AB00066014AE050E06AE471E08BED95E00E9437
:101AC000EC050E94360683FFCFC010920101709290
:101AD0006A010E944508C8C03E983F9880CF99206F
:101AE00029F0C430D10511F42E9A2F9881E00E947C
:101AF00096039E01D7FF04C0222733272C1B3D0BE2
:101B000027703327CE01D7FD0796F3E0959587958B
:101B1000FA95E1F7D7FF05C00197F801E21BF30B37
:101B20009F01BC017695762F662777956795655757
:101B30007E4FF12CE12C3801621A730A8E3FFFEFC1
:101B40009F0709F43DC08E9CD0018F9CB00D1124DD
:101B500050E040E0A455BA4F5B01E0E8AE0EB11C86
:101B60008F3F980791F0FD01E40FF51FE4916B01A1
:101B7000C40ED51EF0E02F01022E01C0440C0A94C1
:101B8000EAF7F60154884528448A2115310599F071
:101B9000FD01E40FF51FE4916501C40ED51EF0E0D0
:101BA0002F01062C02C0559447940A94E2F7F601DF
:101BB00054884528448A4F5F5F4F4835510581F668
:101BC000019660587F4FEA94EF2809F045C00E94C3
:101BD0003E068FE090E00E941B062196C931D10598
:101BE00009F00ECF992011F02F9A2D9880E991E0FD
:101BF0000E941B060E94190681E090E00E944308A3
:101C000080FF06CF8AE090E00E9443089FEF980F84
:101C10009E3F08F0FDCE22E330E03093690120932F
:101C2000680128E330E03093670120936601CBE040
:101C3000D0E0682F8BED95E00E949807CE010E94BE
:101C400043082196C131D105A1F70E943E0688EED6
:101C500093E00E941B06DCCEEE24E394F12C6ECFC1
:101C600080916A01811135CF0E943E060115110550
:101C700009F4EBCE0E940000E6CEF999FECF92BDAA
:101C800081BDF89A992780B50895262FF999FECF3E
:101C90001FBA92BD81BD20BD0FB6F894FA9AF99A89
:101CA0000FBE01960895EE0FFF1F0590F491E02DF1
:101CB0000994AEE0B0E0EFE5FEE00C9408110D8968
:101CC0001E8986E08C831A8309838FEF9FE79E83AA
:101CD0008D83AE01475E5F4F6F89788DCE0101968F
:101CE0000E947C0E2F813885020F131FF80110828D
:101CF0002E96E4E00C942411ABE0B0E0E2E8FEE0C4
:101D00000C94FA107C013B018A01FC0117821682B7
:101D1000838181FFC8C1CE0101965C01F7019381E7
:101D2000F30193FD859193FF81913F01882309F48D
:101D300053C1853239F493FD859193FF81913F0121
:101D4000853229F4B70190E00E946C10E7CF912C06
:101D5000212C312CFFE1F31538F08B3211F190F486
:101D6000803209F1833229F137FC3CC020ED280F85
:101D70002A3050F536FE20C08AE0989E200D1124AE
:101D8000922E06C08D3291F0803371F7689430F84E
:101D9000F30193FD859193FF81913F018111DACF8A
:101DA00021C0689431F8689432F8F2CF689433F81F
:101DB000EFCF689434F8ECCFEAE02E9E200D11248A
:101DC000222E689435F8E4CF8E3229F436FC04C113
:101DD000689436F8DDCF8C3619F4689437F8D8CF8C
:101DE0008836B1F2982F9F7D95549330E0F083367A
:101DF000A1F18337C1F1833509F063C02801F2E016
:101E00004F0E511CF801C080D180692D70E036FC66
:101E100002C06FEF7FEFC6010E9456104C0168941C
:101E200037F882010AC00C5F1F4FFFE3F983882453
:101E30008394912C6501E89437F833FE2DC0522C21
:101E40008114910471F5552009F468CFB70180E23F
:101E500090E00E946C105A94F6CFF801808189833B
:101E60000E5F1F4FE4CF2801F2E04F0E511CF80126
:101E7000C080D180692D70E036FC02C06FEF7FEF2B
:101E8000C6010E9461104C018201D5CFB70180E2EA
:101E900090E00E946C102A942814190409F0B0F7FD
:101EA000CECFF60137FC859137FE81916F01B701E6
:101EB00090E00E946C1051105A94F1E08F1A910832
:101EC000BFCF843619F0893609F077C0F80137FEA4
:101ED0006BC060817181828193810C5F1F4FF32DF4
:101EE000FF763F2E97FF09C090958095709561957C
:101EF0007F4F8F4F9F4F689437F82AE030E0A5015D
:101F00000E949C10C82ECA188C2C432C36FE0CC084
:101F1000E89440F8C91440F434FE05C032FC03C014
:101F2000F32DFE7E4F2E892C44FE95C0FE01EC0D54
:101F3000F11D8081803309F087C0242D297E422E37
:101F4000842D8870582E43FC95C040FE8FC09C2C79
:101F5000821418F42C0C922C981844FE91C0B701EE
:101F600080E390E00E946C1042FE09C088E790E098
:101F700041FE02C088E590E0B7010E946C10C914D0
:101F800008F48AC0CA94D12C9FEFC91AD90ACA0C86
:101F9000DB1CF60182916F01B70190E00E946C108A
:101FA000AC14BD04B1F74FCF60817181072E000CD6
:101FB000880B990B0E5F1F4F92CFD32CE894D4F867
:101FC0002AE030E0853739F1232D297FD22E8F3654
:101FD00001F148F48835A9F0F701868197812B96A5
:101FE000E2E10C941611803749F08837A9F7D4FE46
:101FF00002C06894D2F820E130E00DC06894D4F8B3
:10200000F6CF34FE03C0822F8660D82E20E132E066
:1020100002C028E030E0F801D7FE0FC06081718176
:10202000828193810C5F1F4FA5010E949C10C82ED6
:10203000CA183D2CE89437F867CF6081718190E031
:1020400080E00E5F1F4FF0CF42FC02C0839478CF38
:102050008394839475CF842D867809F471CFF6CF5D
:10206000B70180E290E00E946C1083948214C0F368
:10207000512C73CF522C5818821408F46ECFF8CF1D
:10208000842D867809F47BCF8BE241FE80E247FC09
:102090008DE2B70190E071CFB70180E390E00E943C
:1020A0006C109A946CCF8FEF9FEF99CFFC01059045
:1020B000615070400110D8F7809590958E0F9F1F4A
:1020C0000895FC016150704001900110D8F780958F
:1020D00090958E0F9F1F08950F931F93CF93DF93BB
:1020E000182F092FEB018B8181FD09C01FEF0FEF26
:1020F000812F902FDF91CF911F910F91089582FF33
:1021000014C02E813F818C819D81281739073CF4B2
:10211000E881F981CF0101969983888310838E81AC
:102120009F8101969F838E83E3CFE885F985812F78
:102130000995892BA1F3DACFFA01AA27283051F1AA
:10214000203181F1E8946F936E7F6E5F7F4F8F4FE8
:102150009F4FAF4FB1E03ED0B4E03CD0670F781F47
:10216000891F9A1FA11D680F791F8A1F911DA11D2C
:102170006A0F711D811D911DA11D20D009F4689465
:102180003F912AE0269F11243019305D3193DEF60D
:10219000CF010895462F4770405D4193B3E00FD0C3
:1021A000C9F7F6CF462F4F70405D4A3318F0495DAE
:1021B00031FD4052419302D0A9F7EACFB4E0A69591
:1021C0009795879577956795BA95C9F700976105B3
:1021D000710508959B01AC010A2E06945795479509
:1021E00037952795BA95C9F7620F731F841F951FFE
:1021F000A01D08952F923F924F925F926F927F920F
:102200008F929F92AF92BF92CF92DF92EF92FF9206
:102210000F931F93CF93DF93CDB7DEB7CA1BDB0BB2
:102220000FB6F894DEBF0FBECDBF09942A88398857
:1022300048885F846E847D848C849B84AA84B9845E
:10224000C884DF80EE80FD800C811B81AA81B9816A
:10225000CE0FD11D0FB6F894DEBF0FBECDBFED017E
:102260000895F894FFCF0101FFFFFFFF00E1000098
:102270000000000000C1808100000000000000D9C3
:10228000045804FA04EF044005FE041C0500000095
:10229000009807EC0540083F0843757272204C65B2
:1022A00076656C0025326400415244554D454D0021
:0C22B0004120544F205354415254000070
:1074000080E189BD82E189BD09B400FEFDCF089508
:10741000C8D569F08091E9008F931092E9009DD45E
:1074200083FF01C01CD58F9187708093E900089578
:107430008EEF0090E10008220092E1000895F20131
:10744000F999FECFF2BDE1BD0895F9DFF89A80B554
:1074500008C0F5DF1FBA80BD0FB6F894FA9AF99A02
:107460000FBE31962F010895E0E0F0E085919491F0
:107470000196089580EE8BB98BEA34D01092890082
:107480008AEF8093880082E080936F0083E080938E
:107490008100E7E5F7E785913AD0E336E1F781E04F
:1074A0008093D7008AE482BF1092D8001092E20045
:1074B0001092DA001092E10080E808D019BC1EBAE0
:1074C0001092E00060D489E051D481E98093D80023
:1074D0000895A3E6B1E090E81AD08D939A95E1F76C
:1074E000089586E008D010C083E005D08F2F0FD01C
:1074F0008E2F0DD080E05E9A599809C005D085E0A6
:10750000FADF05D080FDFDCF599A5E9808958EBDB3
:107510008DB587FFFDCF8EB508958FE08221E9F705
:10752000F3DFE3E6F6E090EB5C98892FF0DF80E193
:10753000EEDF5C9A8191EBDF83E68E278F77D1F7C0
:107540009395983B89F70895E3E6F1E097FC36C000
:1075500094FC4DC092FE089596849920D1F3F8943E
:10756000C089D78520E030E080E090E4AFEFBFEF46
:10757000119689199040E0F72D01BD4F8D0127FD2F
:1075800013C0E0E0F8E011928EE7819392E4E117F6
:1075900091939AE508F092E4E334C9F7819310825D
:1075A000BFDFFE012196A0DF94DFF901FDD4205852
:1075B0003F4F040D151D9A9411F710C28301282D19
:1075C00060906C0170906B0143D019F48823C1F76F
:1075D0000895380188243CD0C9F580916A0182174A
:1075E00009F4830160906E0170906D01F4CF80E129
:1075F000982E60906E0170906D012AD059F4882306
:10760000B1F708959FEF95FC03C096FE089591E0B1
:1076100097FB890E662477248301222719D0B1F4C1
:107620008823A1F380916A0136F0881650F48217FE
:1076300030F0213003C0881520F4281710F483019E
:10764000282F60906E0170906D01E8CF3801822E76
:10765000F3014ADF3EDFC3E6D1E0E0E5F7E709905A
:107660008591081621F4E735D1F7088080104CCFBA
:10767000C9E031DFCA95E9F7D0E197FC55C094FC29
:1076800037C096FE1AC0C3E6D2E0E3E6F6E098E023
:1076900088E78E0F00840192E817E1F7884F099080
:1076A0000192E817E1F7C858DF4F9A9589F735DF5F
:1076B000C85FD340C33E49F749C0C3E6D6E0EBE517
:1076C000FAE098E08E2F885702900086E817E1F7DD
:1076D00038960A900292E817E1F73897C857D040D9
:1076E0009A9581F71ADFC850DC4FC33E41F72EC090
:1076F000A3EEB6E0E3E6F6E09AE0C6E00D90808106
:107700008025807F802582958193A336B90709F46F
:10771000B2E0E336F90709F4F2E0E336FC0771F76B
:10772000FCDEDA9529F712C0A3EEB9E0E3E6FAE051
:1077300092E00E90829180258F70802582958083C3
:10774000E336F907B1F7E9DEDA9571F7882708958E
:1077500041524455424F59D5F08D14A1C881CFD91B
:10776000F1AF000000FFFFCFCFFFFFFFFFCFCFFF44
:10777000FF0000FE067E7E06FE46565616FE0656A4
:10778000461EFE3F61E9E3FFE3EBE3FFE3EBE3FFCC
:10779000E16B3F0012011001020000084123360096
:1077A00001000000000109023E00020100803209D0
:1077B000040000010202010005240010010424025B
:1077C000040524060001070582030800FF090401DF
:1077D00000020A00000007050402100001070583EB
:0477E0000210000192
:1078000011241FBE04B714BE88E18093600010925B
:1078100060008EEF9AE09EBF8DBF222433242101A9
:107820003101410180E88AC00F928F939F931F928C
:107830000FB60F9211244F936F938091DA0080FF5F
:1078400037C023C00F920FB68F939F93EF93FF9390
:1078500088278093850080938400E0E5F1E09281A1
:10786000907261F490818917980B908309F45D9A66
:1078700091818917980B918309F4289A239411F424
:107880008315381EFF91EF9154C08091D80080FF7E
:107890000FC08091DA008E7F8093DA008091D9004A
:1078A00080FF04C0ADDD81E08EBB02C019BC1EBAF2
:1078B0008091E10080FF0BC053D280FF08C053D2FB
:1078C0008091D800806202DE19BC85E08EBB809179
:1078D000E10084FF1AC044D284FF17C091DD80917B
:1078E000D8008F7DF3DD8FEEA4DD3AD28F7E8160EC
:1078F0003DD280915301882331F48091E30087FDCC
:1079000002C081E001C084E08EBB8091E10083FF72
:107910000CC026D283FF09C087EF8BDD82E08EBBCF
:107920001092530185DD1FD22ED26F914F910F908F
:107930001F909F918F910FBE0F90189580936100BB
:1079400010926100B1E0B5BF82E085BF81EF85B9DB
:1079500087EE84B91DB8769A10BA83EF81BB82E6B0
:107960008BB982EF8AB980E58CBDBDBDA0E0E4E9AA
:10797000F7E705900D92A035E1F71D92BB30E9F7CE
:10798000000004C07C9B02C06FDD41F573DD78947C
:107990005FDE71F0ABE9B7E0E3E6F7E790E1059071
:1079A0000D929A95E1F7A059BF4FE339B9F7B9DDC8
:1079B00052D02EDD80915201807861F48FB1809594
:1079C000807F66991C9B8460982E1CDE8110BCDD34
:1079D00092FC02C0332062F747DD51F3F89489EB43
:1079E00081DD81E08093E00010926F0010928100B1
:1079F000109285001092840081E085BF15BE2E9AFA
:107A00002F9A2D9A5D9A289A0C940000A4D107C051
:107A100057D102C0C6D239F0A0D182FFFBCF85FF7B
:107A2000F7CF8091F1000895082E83E095D185FD70
:107A300007C08AD102C0B5D269F08FD180FFFBCFD9
:107A40000092F10080915201807221F45D9884E6E9
:107A50008093500108957FD182FF34C180915201FB
:107A6000807221F4289884E680935101CFDF182F8B
:107A7000853431F422248EE7382EE1DC8DE00BC111
:107A8000843511F4C3DFFACF8C34C1F38035B1F300
:107A9000843721F484E4C8DF80E0FDC0813611F42E
:107AA00089E5F9C0813429F4B1DF582EAFDF482EC3
:107AB000E5CF803711F483E5EEC0833539F4E0E596
:107AC000F7E78591B1DFE735E1F7E6C0863521F4C8
:107AD00082E3AADF80E3DFC0863761F481E3669B3F
:107AE0008E5F1C9B8F5FA0DF8FB1809582958F701A
:107AF0008F5BD1C08837A9F489DF80935201289A1F
:107B000084FD28985D9A83FD5D982E9A81FD2E98BC
:107B10002F9A82FD2F982D9A80FD2D9887FD88241D
:107B2000ADCF8A3649F48FE9E6DCC3E0F0DC7CDFD8
:107B3000CA95E1F7E9DCB0C0833731F487E874DF38
:107B400085E972DF8EE1A7C0853639F4E0E8F3E716
:107B50003ED2E058F040E0F791CF823631F489E52B
:107B600063DF80E061DF80E896C0823419F08736F9
:107B700009F07DC033244ADFD82F48DFC82F46DF05
:107B8000082F8354843008F085C0063411F4440C67
:107B9000551CF20110926F001736B9F4033489F4C2
:107BA00083E0A3DCB4DC8EB51EBC3EDF0DB42197B0
:107BB000D1F7AADC08C0063411F4859101C045DC78
:107BC00033DF2197C2F72F014AC00334A9F4E11132
:107BD00004C087DC88ED89DC91DC83DC82E085DC15
:107BE00015DF0DB48EBDCA95D9F7319691DC86DCD0
:107BF000DA9569F72F0131C00634F1F49F01F437AB
:107C0000D8F4E5D119C002DF063461F4C0FB46F0B8
:107C1000F43728F4182E81E087BFE89511243296B6
:107C2000082E0AC0043439F4DF01B370AD59B94FDE
:107C30008D93319601C00DDC21972AF7043431F47D
:107C40002F01F370FE2B49F46CDC07C0063429F4D5
:107C50002F01F901F43708F4B8D18DE0E5DE0634E0
:107C600011F45694479482E080936F0015C08237D8
:107C7000E1E049F08634E0E031F08E34E3E019F0E1
:107C8000813531F4E2E0F0E089E087BF849103C000
:107C90008B3111F08FE3C8DE83E0C7DB55D095FF51
:107CA00003C009C07ED171F058D080FFFBCF4CD00B
:107CB00002C077D139F051D080FFFBCF84E0B5DB33
:107CC0008BE743C00895E4E5F1E067E090915B0144
:107CD00080915C01913231F0913AE1F58132D1F538
:107CE0005ED181C0823271F48191805B8191844048
:107CF00089F580915D0180FD2DC0F89481E080932D
:107D0000E0007ECD803231F54AD14BD1E9F08530AB
:107D1000D9F023D083FD18C082FFF7CF04C081DEE5
:107D20008193615031F09091F3008091F200892BA2
:107D3000B1F7C6DF611549F704C033D129F08530AA
:107D400019F00BD080FFF9CF8EE79091E8008923DE
:107D50008093E800089584E068DB8091E80008954E
:107D60008091E2000895FCDF8E7F80618093E200C5
:107D7000089582E061EC09D083E061E802D084E0FC
:107D800060E842E103C080E060E042E04EDB81E079
:107D900007D01092ED006093EC004093ED00089541
:107DA0009091EB00892B8093EB00089560E0923076
:107DB00029F0913029F4E0E062E102C0E2E16EE3F3
:107DC000F1E0089580915B0188234CF402C0E9D072
:107DD000C1F3C3DF82FFFBCF73CFE3D091F3BDDFED
:107DE00080FFFBCFB1CF40916101509162014617F6
:107DF000510520F0462F611509F4A6DF50E022C09E
:107E0000D0D061F1853051F1A8DF83FD59CFA5DFD6
:107E100082FD21C080FF16C03091F3002091F20056
:107E200006C081918093F10041502F5F3F4F411573
:107E300019F028303105A8F350E02830310509F455
:107E400051E082DF4115E1F65523D1F604C0A9D0F7
:107E500029F0853019F081DF82FFF9CF31CFEBE5D2
:107E6000F1E0DFDD8193E336E1F72DDF76DF83FF9D
:107E700091C080915B0190915C01913009F170F0AB
:107E80009330F1F0953009F444C0963009F456C0AF
:107E9000983009F460C0993059F767C0823841F7CB
:107EA00080915F01C1DA2091EB001092E90077D058
:107EB0002295269521702093F1001092F10052C076
:107EC000882311F08230A1F68F71823089F680917B
:107ED0005D018823D1F420915F01277049F220933E
:107EE000E9008091EB0080FF10C0933011F480E234
:107EF0000BC080E155DF81E0880F2A95E9F7809378
:107F0000EA001092EA0088E04BDF1092E90047D0C7
:107F10002AC0882391F410915D0110680FB7F8947E
:107F20003ED050DF1ADF80FFFDCF1093E300103802
:107F300083E009F482E08EBB0FBF2CC080588230F2
:107F400048F580915D0190915E0130DF603011F164
:107F500026D049DF1FC08038E9F421D08091530139
:107F60008093F100F1DE2EDF15C0882399F4909103
:107F70005D01923078F49093530111D023DF80910A
:107F80005301882321F48091E30091E087FD94E080
:107F90009EBBEFDEE2DE83FF089580E201DF87EF24
:107FA000D4CE8EB388230895A3E6B1E0F437B8F4B5
:107FB0000ED090E40D901D9081E087BFE895329639
:107FC0009A95C1F71124E058F04085E001C083E0A4
:107FD00001D081E187BFE89507B600FCFDCF089589
:067FFA003230D7CFFBDCA2
:00000001FF
