:020000040000FA
:100000000C946C030C9494030C9494030C9494033C
:100010000C9494030C9494030C9494030C94940304
:100020000C9494030C9494030C940C090C947B0989
:100030000C9494030C9494030C9494030C949403E4
:100040000C9494030C9494030C9494030C949403D4
:100050000C9494030C9494030C9494030C94AD0BA3
:100060000C9494030C9494030C9494030C949403B4
:100070000C9494030C9494030C9494030C949403A4
:100080000C9494030C9494030C9494030C94940394
:100090000C9494030C9494030C9494030C94940384
:1000A0000C9494030C9494030C94940300000000AB
:1000B000003E5B4F5B3E3E6B4F6B3E1C3E7C3E1CEE
:1000C000183C7E3C181C577D571C1C5E7F5E1C0034
:1000D000183C1800FFE7C3E7FF0018241800FFE7EB
:1000E000DBE7FF30483A060E2629792926407F05AE
:1000F0000507407F05253F5A3CE73C5A7F3E1C1CC4
:1001000008081C1C3E7F14227F22145F5F005F5F83
:1001100006097F017F006689956A6060606060946F
:10012000A2FFA29408047E040810207E2010080874
:100130002A1C08081C2A08081E101010100C1E0C7F
:100140001E0C30383E3830060E3E0E060000000011
:100150000000005F00000007000700147F147F14F8
:10016000242A7F2A1223130864623649562050003D
:1001700008070300001C2241000041221C002A1C29
:100180007F1C2A08083E0808008070300008080814
:100190000808000060600020100804023E51494534
:1001A0003E00427F400072494949462141494D3352
:1001B0001814127F1027454545393C4A49493141B9
:1001C000211109073649494936464949291E000087
:1001D00014000000403400000008142241141414DC
:1001E0001414004122140802015909063E415D59C8
:1001F0004E7C1211127C7F494949363E41414122D1
:100200007F4141413E7F494949417F090909013EFA
:10021000414151737F0808087F00417F4100204021
:10022000413F017F081422417F404040407F021C33
:10023000027F7F0408107F3E4141413E7F0909094A
:10024000063E4151215E7F09192946264949493216
:1002500003017F01033F4040403F1F2040201F3FDC
:100260004038403F63140814630304780403615961
:10027000494D43007F4141410204081020004141A3
:10028000417F04020102044040404040000307084F
:100290000020545478407F2844443838444444284B
:1002A000384444287F385454541800087E090218F2
:1002B000A4A49C787F0804047800447D400020407A
:1002C000403D007F1028440000417F40007C0478BE
:1002D00004787C080404783844444438FC18242406
:1002E0001818242418FC7C08040408485454542486
:1002F00004043F44243C4040207C1C2040201C3C03
:100300004030403C44281028444C9090907C4464F9
:10031000544C44000836410000007700000041368C
:10032000080002010204023C2623263C1EA1A16112
:10033000123A4040207A3854545559215555794144
:100340002154547841215554784020545579400C1B
:100350001E527212395555555939545454593955FC
:100360005454580000457C410002457D420001453F
:100370007C40F0292429F0F0282528F07C545545AC
:10038000002054547C547C0A097F4932494949323F
:100390003248484832324A4848303A4141217A3A54
:1003A00042402078009DA0A07D39444444393D401E
:1003B00040403D3C24FF2424487E4943662B2FFCCB
:1003C0002F2BFF0929F620C0887E09032054547979
:1003D000410000447D413048484A32384040227A4A
:1003E000007A0A0A727D0D19317D2629292F2826C7
:1003F0002929292630484D402038080808080808CF
:100400000808382F10C8ACBA2F102834FA00007B27
:10041000000008142A142222142A1408950022002D
:1004200095AA005500AAAA55AA55AA000000FF00E7
:10043000101010FF00141414FF001010FF00FF1024
:1004400010F010F0141414FC001414F700FF000056
:10045000FF00FF1414F404FC141417101F10101FD5
:10046000101F1414141F00101010F0000000001FC3
:10047000101010101F10101010F010000000FF10CE
:100480001010101010101010FF10000000FF1400CA
:1004900000FF00FF00001F10170000FC04F41414FC
:1004A0001710171414F404F40000FF00F7141414C8
:1004B00014141414F700F7141414171410101F1048
:1004C0001F141414F4141010F010F000001F101F6B
:1004D0000000001F14000000FC140000F010F010D9
:1004E00010FF10FF141414FF141010101F00000050
:1004F00000F010FFFFFFFFFFF0F0F0F0F0FFFFFF54
:100500000000000000FFFF0F0F0F0F0F38444438AA
:10051000447C2A2A3E147E02020606027E027E02E5
:1005200063554941633844443C04407E201E200604
:10053000027E020299A5E7A5991C2A492A1C4C7241
:1005400001724C304A4D4D303048784830BC625AC8
:10055000463D3E494949007E0101017E2A2A2A2A58
:100560002A44445F444440514A444040444A514034
:100570000000FF0103E080FF000008086B6B0836F5
:1005800012362436060F090F060000181800000066
:100590001010003040FF0101001F01011E00191D55
:1005A0001712003C3C3C3C0000000000F0F89C8E20
:1005B0008783878E9CF8F00000FEFF03030303038C
:1005C000070EFCF80000FEFF0303030303070EFC05
:1005D000F80000FFFF00000000000000FFFF000027
:1005E000FEFF8383838383C7EE7C380000F8FC0E14
:1005F00007030303070EFCF800003F7FE0C0808084
:10060000C0E07F3FFFFF01010101010101FFFF0089
:1006100000FFFF0C0C0C0C1C3E77E3C100007FFFB9
:10062000C0C0C0C0C0E0703F1F00001F3F70E0C0EE
:10063000C0C0E0703F1F00007FFFC1C1C1C1C1E366
:10064000773E1C00001F3F70E0C0C0C0E0703F1F3D
:10065000000000000001FFFF01000000D5F08D1434
:10066000A1C881CFD9F1AF2000080B00020202001F
:100670000009040000010202000005240010010529
:100680002401010104240206052406000107058156
:100690000310004009040100020A000000070502DF
:1006A0000240000007058302400000040309041211
:1006B000010002EF020140412336800001010203E4
:1006C0000141726475696E6F204C4C430041726445
:1006D00075626F7900002A0C11241FBECFEFDAE09B
:1006E000DEBFCDBF11E0A0E0B1E0E2E4F3E302C081
:1006F00005900D92AC39B107D9F726E0ACE9B1E02D
:1007000001C01D92AD37B207E1F713E0CCE6D3E0AC
:1007100004C02197FE010E94C116CB36D107C9F74C
:100720000E94470C0C949F190C940000E9E2F2E03F
:10073000A0E0B8E000800EBC8111012C1197A0FD53
:10074000FDCF0192B9F70DB40895E1E0F0E00E9409
:10075000BA03319728F068517C4F8F4F9F4FF9CFE4
:10076000AB01FC010E94BA03641775078E079F074F
:10077000C8F30895AFE0B2E02FB7F8947D918D9162
:100780009C9166B52FBFA89B05C06F3F18F47F5F93
:100790008F4F9F4F22E0660F771F881F991F2A9562
:1007A000D1F70895FC0180912802882311F13FB709
:1007B000F89482E08093E9002091F200822F90E08B
:1007C0001816190614F481E090E0882339F028986F
:1007D00044E6409327024091F1004083222339F000
:1007E0002091F200211103C02BE62093E8003FBFC7
:1007F00008958FEF9FEF08952FB7F89483E08093CB
:10080000E9009091E800892F807295FF04C09091D3
:10081000F20080E4891B2FBF089580911F0281118F
:100820000DC082E080931B0284E080931C02109232
:100830001E0210921D0281E080931F028BE192E064
:1008400008958F929F92AF92BF92CF92DF92EF92D4
:10085000FF920F931F93CF93DF936C017B018A016B
:1008600080911301882309F458C0809128028823BD
:1008700009F453C080911A0280FF05C08091E00006
:1008800082608093E000E801B12C8AEFA82E93E00B
:10089000892E2AE3922E209711F4BB20B9F10E94F1
:1008A000FC03811106C0AA94AA20B9F10E94A503F5
:1008B000F2CF8C171D0611F00CF08C2F9FB7F89417
:1008C0008092E9002091E80025FD02C09FBFE3CFA0
:1008D000282F30E0C21BD30BF701815020F041914B
:1008E0004093F100FACFE20EF31EBB2021F090926C
:1008F000E800B12CEBCF8091E80085FDE7CF909226
:10090000E800BB24B394209709F3F3CF5D9884E605
:1009100080931902101611063CF081E090E0F60178
:100920009383828310E000E0C801DF91CF911F9193
:100930000F91FF90EF90DF90CF90BF90AF909F907E
:100940008F900895CF93DF931F92CDB7DEB7698361
:10095000DC01ED91FC910280F381E02D41E050E05B
:10096000BE016F5F7F4F09950F90DF91CF91089582
:1009700083E08093E9008091F200882319F08AE3F4
:100980008093E80008950E94FC0390E00895CF93BF
:10099000DF931F92CDB7DEB7FC018485958597FD67
:1009A00008C02FEF3FEF358724870F90DF91CF915D
:1009B0000895CE0101960E94D203019719F489810E
:1009C00090E0F3CF8FEF9FEFF0CF0F931F93CF9374
:1009D000DF931F92CDB7DEB78C01FC01848595852E
:1009E00097FF0BC0CE0101960E94D203019771F4CC
:1009F000898190E0F80195878487F8018485958541
:100A00000F90DF91CF911F910F9108958FEF9FEF7E
:100A1000F1CFFC018485958597FD0BC09FB7F894B5
:100A200082E08093E9008091F2009FBF90E0019600
:100A300008959FB7F89482E08093E9008091F200D6
:100A40009FBF90E0089540911502509116022091A9
:100A500013023091140242175307B4F49091E80046
:100A60009570E1F39091E80092FD19C08093F10038
:100A7000809115029091160201968F739927892B08
:100A800019F48EEF8093E800809115029091160280
:100A90000196909316028093150281E0089580E0FC
:100AA0000895DF92EF92FF920F931F93CF93DF93FE
:100AB000D82E8A01EB017B01E40EF51ECE15DF0571
:100AC00059F0D7FE12C0FE0184910E9423052196A1
:100AD0008111F4CF0FEF1FEFC801DF91CF911F916C
:100AE0000F91FF90EF90DF9008958881EECF0F93E4
:100AF0001F93CF93DF931F92CDB7DEB782E0898338
:100B000042E450E069E676E080E80E9451050E94E8
:100B10000D04DC0112960D911C910115110589F04F
:100B2000D801ED91FC910280F381E02DBE016F5F51
:100B30007F4FC801099597FD04C0F8010085118514
:100B4000ECCF89810F90DF91CF911F910F91089584
:100B5000615030F02091F100FC0120830196F8CF24
:100B6000289884E6809327020895AF92BF92CF928F
:100B7000DF92EF92FF920F931F93CF93DF936C015D
:100B80007B018B01040F151FEB015E01AE18BF083E
:100B9000C017D10759F06991D601ED91FC910190F0
:100BA000F081E02DC6010995892B79F7C501DF9108
:100BB000CF911F910F91FF90EF90DF90CF90BF905A
:100BC000AF9008952D9A0895BC0190E080E0AB01AC
:100BD000FC010E94BA0341505109E109F10928F0D2
:100BE00068517C4F8F4F9F4FF6CFAB01FC010E94A5
:100BF000BA03641775078E079F07C8F308958FB16E
:100C00008095807F669B88601C9B846008958038F7
:100C10009105B4F5480F592F511D4138510514F075
:100C200040E850E0481BFB0177FD379633E0F5952F
:100C3000E7953A95E1F7F695FE2FEE27F795E795BC
:100C4000E80FF91FE75DFD4F6770772781E090E0BF
:100C500001C0880F6A95EAF7382F213041F44150DE
:100C600078F08191DF011197832B8C93F8CF8095D9
:100C7000415030F09191DF01119798239C93F8CF68
:100C8000089580E0E9E2F2E081118FEF0024819382
:100C90008193819381930394D1F71092FB01109279
:100CA000FA011092FD011092FC010895CF93C82F14
:100CB0000E94FF05982F9C2381E09C1380E0CF9138
:100CC000089580E00C94960380389105B8F4603460
:100CD0007105A0F420E191E061FD94E060FD990FC1
:100CE00062FD9295687F269FD0011124A80FA75D11
:100CF000BD4F8C9140FF03C0892B8C930895909534
:100D00008923FBCF2F923F924F925F926F927F92F7
:100D10008F929F92AF92BF92CF92DF92EF92FF920B
:100D20000F931F93CF93DF9300D000D000D01F927A
:100D3000CDB7DEB76D30D9F0309005014090FA01A3
:100D40005090FB01832D90E09F838E836A3051F594
:100D50001092FD011092FC0123E0880F991F2A9543
:100D6000E1F7480E591E5092FB014092FA0181E0D2
:100D700090E027960FB6F894DEBF0FBECDBFDF918F
:100D8000CF911F910F91FF90EF90DF90CF90BF9088
:100D9000AF909F908F907F906F905F904F903F901B
:100DA0002F900895A090FC01B090FD0195E0699FFF
:100DB000B0011124FB01E455FF4F3F016501212CD7
:100DC000F5E02F1629F1C3010196F301F491F9839F
:100DD0003C01420128E02A83898181708D8310E0E3
:100DE00000E00315D0F4F801EC0DFD1DFC83EB834E
:100DF000F12CE12CE31470F4B4016E0D7F1D4D81D4
:100E00008B819C810E946406FFEFEF1AFF0AF2CFEC
:100E10001982DFCF0F5F1F4FE4CF298126952983E9
:100E20008A8181508A83EE81FF818E0E9F1E8111FF
:100E3000D3CF2394CE0EDF1EF6E02F12C1CFC50113
:100E4000329C800D911D11249093FD018093FC0133
:100E50008ECF6F927F928F929F92AF92BF92CF92DE
:100E6000DF92EF92FF920F93CF93DF934C01EB0150
:100E7000E42EC22E202F0E940706CC0EDD2ED11CA0
:100E8000B60161507109603471052CF4202F4E2D8C
:100E9000C4010E9407063E01560181E4C816D10430
:100EA0001CF080E4A82EB12C6A147B044CF4402F73
:100EB000B301C4010E9464068FEF681A780AECCF70
:100EC000E80CF92CF11C81E0E81AF108CA15DB05E1
:100ED0003CF4402FBE01C7010E9464062196F6CF64
:100EE000DF91CF910F91FF90EF90DF90CF90BF9067
:100EF000AF909F908F907F906F9008952F923F9228
:100F00004F925F926F927F928F929F92AF92BF9219
:100F1000CF92DF92EF92FF920F931F93CF93DF93C5
:100F200000D01F92CDB7DEB79B838A837B016A0115
:100F300009838901061B170B17FF03C01195019543
:100F4000110946018A819B81881A990A97FE03C07C
:100F5000919481949108801691065CF49C2D8D2DBE
:100F60006901292F382F9A818B81FB82EA82E92E31
:100F7000F82E8A819B81C816D9065CF49E2D8F2D90
:100F80007901292F382F9A818B81DB82CA82C92E61
:100F9000D82E16018A819B81281A390A29014E18F8
:100FA0005F0857FE03C0519441945108310137FE48
:100FB00003C09FEF691A790A759467948FEFE21660
:100FC000F3060CF481E0A82E880FBB088A819B8170
:100FD000C816D906CCF04981BC01C701801691061C
:100FE0001CF0B7018A819B810E9464066418750811
:100FF00077FE04C0EA0CFB1C620C731C8A819B8187
:1010000001969B838A83E2CF0F900F900F90DF9120
:10101000CF911F910F91FF90EF90DF90CF90BF90F5
:10102000AF909F908F907F906F905F904F903F9088
:101030002F900895CF93DF93C0E9D0E020E4288378
:101040009093990080939800CB010E94E405109240
:10105000FE011882DF91CF910895EF92FF921F93C6
:10106000CF93DF937C01D0E0C0E011E08FE090E00F
:101070000E94E40588E00E945606882379F01093C8
:10108000040280910302811110C01093A00181E03D
:10109000DF91CF911F91FF90EF90089584E00E941F
:1010A00056068111ECCF1092040280930302219620
:1010B000EC16FD06D9F680E0EBCFAF92BF92CF924F
:1010C000DF92EF92FF920F93CF93DF938091E6012F
:1010D00000E021E04BE06FE370E090E00E94290720
:1010E000C091E201D091E301E090E001F090E101D4
:1010F00040E0BE01C7010E94640667018FEFC81A75
:10110000D80A40E0BE01C6010E946406219640E074
:10111000BE01C7010E94640640E0BE01C6010E94F4
:10112000640686E38093E6018CE390E09093E3010C
:101130008093E201109200021092FF0110920202CD
:1011400087EAC82E81E0D82EC2E0D0E0B12CA12CD5
:10115000F12CE12CF601EE0DFF1D108201E024E0E0
:1011600048E0BE01C5010E9429078FEFE81AF80A7E
:101170008AE0A80EB11C8DE0E816F10459F78DE065
:10118000C80ED11C2696CA31D10501F780910702FD
:1011900081110BC0DF91CF910F91FF90EF90DF9005
:1011A000CF90BF90AF900C944106DF91CF910F91FB
:1011B000FF90EF90DF90CF90BF90AF900C946106BE
:1011C000089590E080E00895FC0101900020E9F787
:1011D0003197AF01481B590BBC0189E796E00C948D
:1011E000B5050C942016FF920F931F93CF93DF93B6
:1011F000EC01F62E08811981C8010E942016F8160C
:1012000021F06F2DC8010E942816CE01DF91CF91E9
:101210001F910F91FF9008951F920F920FB60F929A
:1012200011248F939F938091E1009091E100937F2F
:101230009093E10083FF0FC01092E90091E090933A
:10124000EB001092EC0092E39093ED0010922802D4
:1012500098E09093F00082FF22C093E09093E90021
:101260009091F200992319F09AE39093E8009091FD
:101270001902992341F0909119029150909319020B
:10128000911101C05D9A90912702992341F09091AC
:101290002702915090932702911101C0289A84FF50
:1012A00018C08091E2008E7E81608093E200809180
:1012B000E1008F7E8093E10080911A028E7E806132
:1012C00080931A029F918F910F900FBE0F901F90E5
:1012D000189580FFF7CF8091E2008E7E8061809329
:1012E000E2008091E1008E7E8093E10080911A02FD
:1012F0008E7E8160E5CF1F920F920FB60F92112460
:10130000CF92DF92EF92FF920F931F932F933F9311
:101310004F935F936F937F938F939F93AF93BF93FD
:10132000EF93FF93CF93DF93CDB7DEB76C97DEBF1C
:10133000CDBF1092E9008091E80083FF25C068E0EE
:10134000CE0145960E94A80582EF8093E8008D8922
:1013500087FF39C09091E80090FFFCCF982F9076DE
:1013600009F034C19E894F89588D2F89F88C9111CD
:1013700031C0803861F5809118028093F10010929D
:10138000F1008EEF8093E8006C960FB6F894DEBF04
:101390000FBECDBFDF91CF91FF91EF91BF91AF9184
:1013A0009F918F917F916F915F914F913F912F917D
:1013B0001F910F91FF90EF90DF90CF900F900FBE95
:1013C0000F901F9018959EEF9093E800C7CF109252
:1013D000F100D5CF913059F48111D3CF413051056F
:1013E00081F6809118028D7F80931802CACF9330C6
:1013F00049F48111C6CF4130510519F68091180288
:101400008260F2CF953041F48091E80080FFFCCFFC
:1014100020682093E300B5CF963009F0A9C00B8D6A
:101420001C8D22E01092E900109216021092150213
:10143000F2122EC010921402109213020E9477052D
:101440001F8299E09983FA8291E09E8390EA9887BF
:101450009AEF99872091150230911602275F3F4F2E
:101460003C832B838D831092E90010921602109218
:101470001502109314020093130249E050E0BE01DC
:101480006F5F7F4F80E00E9451050E94770579CF02
:1014900010931402009313020E940D04DC011296B3
:1014A0000D911C910115110509F451C1D801ED915F
:1014B000FC910480F581E02DBE016B5E7F4FC80179
:1014C0000995009709F03EC1F80100851185EACF22
:1014D000F3E0FF120EC08F89882309F440C08230E8
:1014E00061F440E867E08DEC96E00E94F70B811113
:1014F00048CF81E28093EB0047CF813029F440E868
:101500006BE081EC96E0F1CF833099F70E940D04F7
:10151000DC011296ED90FC908E010F5F1F4F680169
:10152000E114F10479F0D701ED91FC910680F78187
:10153000E02DB801C7010995080F111DF701E084DE
:10154000F184EECFD8011C92F60101900020E9F75A
:101550003197BF016C197D0940E0C601C6CF6BEA27
:1015600076E0FB01449150E080E80E94510509CFEC
:10157000973009F4BECF983021F481E08093F100D8
:1015800000CF993009F0FDCE837009F0B2CFE9E1C8
:10159000F1E081E031E096E32191222371F0809324
:1015A000E9003093EB00DF0111972C912093EC00C0
:1015B0009093ED008F5F873079F78EE78093EA0094
:1015C0001092EA008F8980932802DBCE8B8D9C8D50
:1015D0001092E900109216021092150290931402D4
:1015E00080931302898D811192C08E899D89913AD1
:1015F00049F4813209F07DCF47E050E06CE071E0C2
:1016000080E0B3CF913209F074CF833269F48F89CF
:10161000988DB0E0A0E08093080190930901A09319
:101620000A01B0930B01ADCE803269F48091E800DD
:1016300082FFFCCF67E08CE091E00E94A8058BEF71
:101640008093E8009ECE823209F09BCE8F898093F2
:101650001301EEEFFFE7859194918B3F9C4D51F183
:10166000E0E0F8E080910C0190910D01A0910E0155
:10167000B0910F01803B9440A105B105F1F4809138
:10168000130180FD1AC0EE3F8AE0F80789F587E76D
:1016900097E791838083809160008093170288E1AF
:1016A0009BE00FB6F894A895809360000FBE9093CE
:1016B000600067CEEEEFFAE0D5CF80819181873769
:1016C000974709F05ECEA89580916000886180936D
:1016D00060008091170280936000EE3F2AE0F207DD
:1016E00089F08091FE0A9091FF0A9183808349CE10
:1016F000808191818737980751F29093FF0A8093F8
:10170000FE0AC5CF1092FF0A1092FE0A3ACE0E943E
:101710000D04DC0112960D911C910115110509F4BF
:10172000E8CED801ED91FC910190F081E02DBE0151
:101730006B5E7F4FC8010995811123CEF8010085AA
:101740001185EBCF181619060CF41BCED2CEF1E0A2
:10175000FF12BECE6FEA76E004CF0F920FB68F93E2
:101760009F93EF93FF9380910A028D5F8D3708F06E
:101770008D5780930A02EBE0F2E080818E4F8083E8
:1017800091819F4F918382818F4F828383818F4F7D
:101790008383EFE0F2E080818F5F808381818F4FD0
:1017A000818382818F4F828383818F4F83838FB127
:1017B0008F6066991C9B88278F3681F4809109027F
:1017C000981B963068F0E0E0F8E087E7808381833B
:1017D00088E180936000F0936000FFCF909309024E
:1017E000FF91EF919F918F910FBE0F901895EF92FF
:1017F000FF920F931F93CF93DF93F82E192FE62EAE
:10180000042F81E0860F880F0E94230583E00E9449
:101810002305CF2DD12FEC0EFD2EF11CCE15DF05AB
:10182000B9F007FF13C0FE0184910E942305182F11
:1018300080E00E942305812321968111EFCFDF9163
:10184000CF911F910F91FF90EF9008958881EDCF78
:1018500081E0F5CFE9E2F6E01382128288EE93E0B0
:10186000A0E0B0E084839583A683B78383E291E010
:10187000918380838FEF9FEF95878487E9E7F6E078
:101880001382128285E391E0918380830895CDB71E
:10189000DEB7A197DEBFCDBF789483E084BD83E03F
:1018A00085BD81E080936E00E1E8F0E083E0808315
:1018B000E0E881E08083E1E983E08083E0E981E0A2
:1018C0008083E1EC87E08083E3EC81E08083E0ECDF
:1018D00082E08083E2EC81E08083EAE787E0808336
:1018E00080688083109228021092180210921A02C7
:1018F0008091D70081608093D70080EA8093D800E0
:1019000089B5806189BD89B5826089BD09B400FE51
:10191000FDCF0E94A5038091D8008F7C80618093C9
:10192000D8008091E000807F8093E0008091E1000A
:101930008E7E8093E1008DE08093E200559A209A9C
:1019400081EC80937C0085B1806F85B984B1877EFE
:1019500084B984B1876E84B95E9A5F988AB1806DCC
:101960008AB9769A6E9881B3806F81BB899880B36B
:101970008D7080BB80E58CBD81E08DBD85E090E001
:101980000E94E4055F9A85E090E00E94E4055E987D
:101990005C98ECE5F6E089E696E024912EBD000027
:1019A0000DB407FEFDCF31968E179F07B1F75C9AF5
:1019B00081E8809364008091650081608093650078
:1019C0000E94610680E80E94560602E010E088232B
:1019D00081F05C9885EA8EBD00000DB407FEFDCF56
:1019E0005C9A2E982F982D9881E083BF889513BE1E
:1019F000FCCF84E00E945606882309F440C02D984D
:101A000084E80E9456068823C1F00E94E20588EC13
:101A100090E00E94E4052F981A8309836FEFCE01AE
:101A200001960E94F30884EF91E00E94E4052F9A4A
:101A300084E80E9456068111FBCF84E10E9456067D
:101A40008823C1F00E94E20588EC90E00E94E40542
:101A50002E981A83098360E0CE0101960E94F30854
:101A600084EF91E00E94E4052E9A84E10E945606DC
:101A70008111FBCF88EC90E00E94E405BACF0E9470
:101A8000E20582E090E00E94F108882309F475C025
:101A90003E9A3F9A81E090E00E94F108082F04707E
:101AA000702E81FF11C001112E9801EF1FEFE8E0A9
:101AB000EE2EF12C80E40E945606882309F460C0C3
:101AC0002E9A2F9A0E94E20582E390E00E94E4059C
:101AD0000E94FF058111F8CF109290008AE0809358
:101AE000910089E180930001809164008E7F809352
:101AF000640080917A00806480937A0080917A00FB
:101B000086FDFCCF00917800109179000E94BA0305
:101B1000AB01BC01C801B0E0A0E0DC019927882737
:101B20008C019D01040F151F261F371FC901B80125
:101B30002091640021602093640061157105810586
:101B4000910511F00E9417168FB7F89440910B027F
:101B500050910C0260910D0270910E028FBF809126
:101B60009E01882309F4CCC010929E0180E090E091
:101B7000892B51F30E940000E7CF3E983F988ACF0F
:101B8000772029F00430110511F42E9A2F9881E066
:101B90000E949603980117FF04C022273327201BB9
:101BA000310B27703327C80117FD079673E0959511
:101BB00087957A95E1F717FF05C00197A701421BAA
:101BC000530B9A01AC015695542F442757954795CE
:101BD000475D5D4FB12CA12C2701421A530A8E3F5D
:101BE0006FEF960709F43AC06A01E4E9CE0ED11C02
:101BF000DA0170E060E0F501E455FA4F4F018F3FE4
:101C0000980781F0F401E60FF71FE491022E01C05E
:101C1000EE0F0A94EAF75496FC915497EF2B5496E2
:101C2000EC9354972115310581F0F401E60FF71F6D
:101C3000E491F0E01F01042C02C0359427940A942B
:101C4000E2F7F6016080262820826F5F7F4FFFEF6A
:101C5000CF1ADF0A11966835710589F6019668E595
:101C6000A60EB11C40585F4FE0EBAE16B10409F070
:101C7000B6CF0E9461068FE090E00E94E4050F5FFE
:101C80001F4F0931110509F015CF772011F02F9A58
:101C90002D9880E991E00E94E4050E94E20581E030
:101CA00090E00E94F10880FF0FCF8AE090E00E9450
:101CB000F1089FEF980F9E3F08F006CF22E330E037
:101CC0003093FD012093FC0128E330E03093FB01C9
:101CD0002093FA010BE010E0682F89E796E00E945C
:101CE0008206C8010E94F1080F5F1F4F01311105E4
:101CF00099F70E94610688EE93E00E94E405E4CE25
:101D000080919F01142F181B812F909100011917AA
:101D100048F48F5F891708F029CF81E083BF889549
:101D200013BE24CF81E080939E0140939F01809158
:101D30009C0190919D01019690939D0180939C013F
:101D40008091FE01882339F081508093FE0181113A
:101D500002C010929000A5E38A2E912CF2E0FF2E93
:101D600011E08091080281110AC10E94410620E120
:101D700030E03093FD012093FC0146E150E05093A8
:101D8000FB014093FA01F09205018DE391E00E947E
:101D9000E408109305010E94610689E190E00E9429
:101DA0002D088111E3C005E08FE190E09093FD01E3
:101DB0008093FC019092FB018092FA0186E491E00D
:101DC0000E94E4080E94610682E390E00E942D08D0
:101DD0008111CCC0EFE1F0E0F093FD01E093FC0154
:101DE0009092FB018092FA0182E591E00E94E40862
:101DF0000E94610689E190E00E942D088111B6C021
:101E0000015091F6109208020E94410600E210E093
:101E10001093FD010093FC011092FB011092FA0156
:101E20008EE591E00E94E4080E94610606E510E05C
:101E300058E0C52ED12CF12CE12C6AE6462E61E04B
:101E4000562E7AEEA72E71E0B72EE8E16E2E712C99
:101E50004FEFE41AF40AFF92EF925F924F92BF9213
:101E6000AF920E94C7167092FD016092FC01D09261
:101E7000FB01C092FA018AEE91E00E94E4080E9400
:101E80006106C8010E94F108382EC80101960E941F
:101E9000F1080F900F900F900F900F900F905FEF41
:101EA000351267C08F3F09F064C01092060210928D
:101EB0000502C80102960E94F108382E8093E701BE
:101EC000C80103960E94F108282E8093E801C801FA
:101ED00004960E94F1088093E90120910502309157
:101EE00006022115310589F13F932F93282F082EE3
:101EF000000C330B3F938F93822D022C000C990B17
:101F00009F932F92832D032C000C990B9F933F924C
:101F10008EE691E09F938F93BF92AF920E94C71677
:101F200020E330E03093FD012093FC01D092FB01CF
:101F3000C092FA018AEE91E00E94E4080E946106D4
:101F40000FB6F894DEBF0FBECDBF28E0C20ED11C85
:101F50000B5F1F4F37E0E316F10409F079CF8CE2F5
:101F600091E00E942D0880930802F8CE1093080299
:101F7000F8CE932D90930602809305029ACF80911C
:101F8000070281110DC00E94410681E08093070184
:101F9000809307020E945D081092060210920502CB
:101FA00010910601112309F446C31091E60100E0E7
:101FB00021E04BE06FE370E0812F90E00E94290761
:101FC000143740F480E40E945606882319F01E5FFF
:101FD0001093E6011091E601112341F080E20E9486
:101FE0005606882319F012501093E6018091E601FD
:101FF00001E021E04BE06FE370E090E00E942907F0
:1020000088E00E945606811106C084E00E945606B0
:10201000882309F460C081E0809304029091030258
:1020200091115BC090910202992309F456C010925D
:1020300001028093E5011092FE011092900084E36A
:1020400090E09093FD018093FC018DE290E09093ED
:10205000FB018093FA0188E791E00E94E4080E9466
:102060006106CC24C3941091E5011123B1F186E9F6
:1020700090E00E94E40588E00E945606811107C0A6
:1020800084E00E945606D82E882309F474C0C092BA
:10209000E401D0900102D11070C0D0900202DD2086
:1020A00009F46EC004E310E04DE2E42EF12C40E0B0
:1020B000B701C8010E9464065FEFE51AF50A68E3FC
:1020C000E616F104A1F70F5F1F4F0235110561F706
:1020D0001092E50152C01092040280910402809394
:1020E0000302E090E201F090E3010091E001109121
:1020F000E10140E0B701C8010E94640668018FEF6A
:10210000C81AD80A40E0B701C6010E946406570108
:102110009FEFA91AB90A40E0B501C8010E94640600
:1021200040E0B501C6010E9464062091DF012F5FE7
:102130002093DF0180910202882309F43EC280913E
:10214000030190910401AC0197FF04C04427552777
:10215000481B590B4230510509F026C297FD0196E4
:1021600095958795080F191F20FF0CC01093E1016A
:102170000093E0010DC01092E401D092010273CFF0
:10218000D12EFBCF800F911F9093E1018093E0014E
:102190008091010190910201E80EF91EF092E30195
:1021A000E092E2012091E0012093DE012E5F209376
:1021B000DD01E092DC0122E02E0D2093DB011E14F4
:1021C0001F04CCF022E030E03093E3012093E201E1
:1021D00091958195910990930201809301018AE084
:1021E0008093FE0180E48093900087E797E09093CE
:1021F0009900809398008091E2019091E3018034EE
:1022000091059CF18091E60100E021E04BE06FE355
:1022100070E090E00E94290786E38093E6018CE35A
:1022200090E09093E3018093E2011092020280918A
:10223000060181508093060164EF71E081E596E12B
:102240000E941A080E94C81522E030E040E050E0E9
:102250000E943616672B682B692B09F0A8C181E014
:1022600090E090930401809303018091E0019091AC
:10227000E10118161906ECF082E090E09093E1017C
:102280008093E001809103019091040191958195E3
:10229000910990930401809303018AE08093FE01E9
:1022A00080E48093900087E797E090939900809373
:1022B00098008091E0019091E1018E379105ECF05A
:1022C0008CE790E09093E1018093E001809103011D
:1022D00090910401919581959109909304018093C7
:1022E00003018AE08093FE0180E48093900087E7F9
:1022F00097E090939900809398008091E0019091ED
:10230000E1012091E60130E0AC014F5F5F4F4217E1
:1023100053070CF449C0A901445F5F4F48175907A0
:102320000CF442C04091E2015091E3014D53510938
:1023300044305105C8F54091010150910201519579
:102340004195510950930201409301012A5F3F4F8B
:10235000821B930B63E070E00E9499167093040156
:1023600060930301672BA1F40E94C81522E030E0BE
:1023700040E050E00E9436166130710581059105FC
:1023800009F018C181E090E090930401809303016B
:102390008AE08093FE0180E48093900087E893E1D7
:1023A000909399008093980017EAA12E11E0B12E26
:1023B00002E0202E312C11E08AE0982E90E4892E44
:1023C0002AE0722E55245394B6E0FB2EF10E80E0E5
:1023D000D12CC12CF501EC0DFD1D9081AAE0EA2E57
:1023E000E80E91119CC08093A601E092A501109384
:1023F000A401F092A3014090DC01F41408F48FC012
:102400006090DB01611608F48AC09091DE01E91644
:1024100008F485C09091DD01981708F480C02091E0
:1024200007018091050290910602299D800D911D62
:10243000112490930602809305028091FF019091F0
:1024400000020196909300028093FF0101E0008357
:1024500000E024E048E0B1019C9CC0019D9C900DEF
:1024600011240E942907F61410F0411630F58091CE
:10247000A201811122C0209101013091020188271F
:102480009927821B930B9093020180930101809105
:10249000E2019091E301821B930B9093E3018093FF
:1024A000E2015092A2017092FE018092900026EF0C
:1024B0003EE030939900209398009091DE01809146
:1024C000A601981730F09091DD018091A501891740
:1024D00030F58091A201811122C020910301309139
:1024E000040188279927821B930B90930401809302
:1024F00003018091E0019091E101821B930B909385
:10250000E1018093E0015092A2017092FE0180925D
:10251000900046EF5EE050939900409398005FEF83
:10252000C51AD50A8E2D823809F054CF6DE0A60E5B
:10253000B11C86E0280E311C1F2D193109F044CF43
:102540001092A2010091E2011091E301E090E001FC
:10255000F090E10141E0B801C7010E946406670103
:102560009FEFC91AD90A41E0B801C6010E9464066A
:102570000F5F1F4F41E0B801C7010E94640641E0B0
:10258000B801C6010E9464068091FF01909100028B
:10259000C49739F4809107018F5F809307010E94EF
:1025A0005D080E946106E2CA080F191FDFCD8FEF98
:1025B0009FEF57CE8FEF9FEFE7CE8091E60190E03F
:1025C00005969093E1018093E00188E00E94560611
:1025D000811105C084E00E945606882311F181E034
:1025E0008093A1019091A00191111DC080930202DE
:1025F0000E94C81522E030E040E050E00E9436160C
:10260000672B682B692BA1F481E090E09093040183
:10261000809303018FEF9FEF90930201809301015C
:1026200002C01092A1018091A1018093A0018ACFE4
:102630008FEF9FEFEBCFE090E201F090E301C090CD
:10264000E001D090E10140E0B701C6010E946406BC
:102650005601EFEFAE1ABE0A40E0B701C5010E9475
:102660006406FFEFEF1AFF0A40E0B701C6010E94BF
:10267000640640E0B701C5010E94640685E290E06F
:102680009093FD018093FC018AE290E09093FB011E
:102690008093FA018EE791E00E94E4082FE130E098
:1026A0003093FD012093FC0188E390E09093FB01BF
:1026B0008093FA0188E891E00E94E40820910502E5
:1026C0003091060250E040E019A27E0161E2E60E80
:1026D000F11CCA01B9012AE030E040E050E00E945C
:1026E0006816605DF70162937F0121153105410590
:1026F000510579F7309761F001900020E9F73197A3
:10270000AF014E195F09B70189E796E00E94B50550
:102710000E94610680EA9FE00E94E405C0900502E5
:10272000D0900602C114D10409F4D1C1712CF6E590
:10273000EF2EF12CC7010E94F108082FC701019666
:102740000E94F1080F3F19F48F3F09F4D0C0902F79
:1027500021E0270D8C159D0508F0C6C10E94410699
:1027600080E28093E7018093E8018093E90145E7E7
:10277000A42E41E0B42E5AEE852E51E0952E64E150
:10278000C62ED12C70E4272E312CE8E44E2E512C8D
:102790003AE5632E0E9461060E94410620E130E086
:1027A0003093FD012093FC011092FB011092FA017D
:1027B00080E991E00E94E408809106028F93809165
:1027C00005028F93BF92AF929F928F920E94C7167D
:1027D00048E550E05093FD014093FC011092FB014D
:1027E0001092FA018AEE91E00E94E40888E390E0FA
:1027F0009093FD018093FC01D092FB01C092FA01FD
:102800006091E70189E796E00E9482063092FD011F
:102810002092FC01D092FB01C092FA016091E80184
:1028200089E796E00E9482065092FD014092FC01E9
:10283000D092FB01C092FA016091E90189E796E02C
:102840000E94820601E02BE130E04EE350E06BE1B4
:1028500070E088E390E00E947E072BE130E046E4E0
:1028600050E06BE170E080E490E00E947E072BE195
:1028700030E04EE450E06BE170E088E490E00E94CC
:102880007E0700E02CE130E048E550E06CE170E0CC
:1028900088E390E00E947E07812F90E0079623E076
:1028A000880F991F2A95E1F7AC014A5F5F4F01E05D
:1028B0002CE130E06CE170E00E947E0786E490E05D
:1028C0000E94E40580E20E9456060F900F900F9040
:1028D0000F900F900F90882369F0112381F0115011
:1028E00060E570E08BEB93E00E941A0808C090E06E
:1028F00080E02ECF84E00E9456068111EECF80E466
:102900000E945606882349F0123038F41F5F60E5B4
:1029100070E08BEB93E00E941A0880E80E94560654
:10292000882331F1812F90E0FC01E951FE4F7F01B6
:1029300000810F5F008360E570E087E797E00E9409
:102940001A08003319F480E2F7018083F7018081CF
:10295000813211F401E40083F70180818B3511F499
:1029600000E30083F7018081803411F401E20083E9
:1029700080E10E945606882331F1812F90E09C016E
:1029800029513E4F7901F90100810150008360E532
:1029900070E087E797E00E941A08003219F48FE38D
:1029A000F7018083F70180818F3209F46082F7019B
:1029B00080818F3111F40FE20083F7018081803430
:1029C00011F480E2808388E00E945606882309F48F
:1029D000E1CE60E570E08BEB93E00E941A081230C4
:1029E00010F41F5FD5CEF5E07F9E800111240A5AB6
:1029F0001F4FC8010E94F108482E48012FEF821A8C
:102A0000920AC4010E94F1083FEF431203C08F3FB6
:102A100009F467C0542C482E580142E0A40EB11CA2
:102A2000C5010E94F108282E680153E0C50ED11C93
:102A3000C6010E94F108382E780164E0E60EF11C10
:102A4000C7010E94F108682E609106021A8309836B
:102A5000CE0101960E94F308609105029A82898254
:102A6000CE0101960E94F3086091E701BA82A98223
:102A7000CE0101960E94F3086091E801DA82C982D2
:102A8000CE0101960E94F3086091E901FA82E98281
:102A9000CE0101960E94F308509206024092050270
:102AA0002092E7013092E8016092E90173940B5F94
:102AB0001F4F87E078129DCF1092060210920502F8
:102AC00080E28093E7018093E8018093E9010E940E
:102AD0004106109207021092080283E080930601DB
:102AE0005ECD512C412C98CF95E0E90EF11C722E51
:102AF000E7E02E131FCEEBCF8F929F92AF92BF9243
:102B0000CF92DF92EF92FF92CF93DF93EC01688137
:102B100079818A819B81611571058105910521F477
:102B200064E279ED8BE597E02DE133EF41E050E091
:102B30000E94361649015A019B01AC01A7EAB1E493
:102B40000E9455166B017C01ACEEB4EFA501940117
:102B50000E946316C60ED71EE81EF91EF7FE06C0B9
:102B600081E0C81AD108E10880E8F80AC882D98251
:102B7000EA82FB82C701B6019F77DF91CF91FF9078
:102B8000EF90DF90CF90BF90AF909F908F9008957F
:102B90008F929F92AF92BF92CF92DF92EF92FF926D
:102BA00060911401709115018091160190911701A7
:102BB000611571058105910521F464E279ED8BE5DC
:102BC00097E02DE133EF41E050E00E9436164901D5
:102BD0005A019B01AC01A7EAB1E40E9455166B01B2
:102BE0007C01ACEEB4EFA50194010E946316C60E01
:102BF000D71EE81EF91EF7FE06C081E0C81AD108EC
:102C0000E10880E8F80AC0921401D0921501E09220
:102C10001601F0921701C701B6019F77FF90EF9060
:102C2000DF90CF90BF90AF909F908F90089560936A
:102C30001401709315018093160190931701089564
:102C4000F999FECF92BD81BDF89A992780B5089574
:102C5000262FF999FECF1FBA92BD81BD20BD0FB6B8
:102C6000F894FA9AF99A0FBE01960895052E97FBEB
:102C70001EF400940E944D1657FD07D00E9468165E
:102C800007FC03D04EF40C944D16509540953095AA
:102C900021953F4F4F4F5F4F0895909580957095C8
:102CA00061957F4F8F4F9F4F08950E948A16A59F71
:102CB000900DB49F900DA49F800D911D1124089537
:102CC000B7FF0C9455160E945516821B930B08955E
:102CD000A1E21A2EAA1BBB1BFD010DC0AA1FBB1F20
:102CE000EE1FFF1FA217B307E407F50720F0A21B92
:102CF000B30BE40BF50B661F771F881F991F1A94FF
:102D000069F760957095809590959B01AC01BD0128
:102D1000CF010895A29FB001B39FC001A39F700D82
:102D2000811D1124911DB29F700D811D1124911DD3
:102D3000089597FB072E16F4009407D077FD09D06D
:102D40000E94AD1607FC05D03EF4909581959F4FEB
:102D50000895709561957F4F0895AA1BBB1B51E1A3
:102D600007C0AA1FBB1FA617B70710F0A61BB70BFB
:102D7000881F991F5A95A9F780959095BC01CD01A0
:102D80000895EE0FFF1F0590F491E02D0994AEE039
:102D9000B0E0EDECF6E10C9476190D891E8986E021
:102DA0008C831A8309838FEF9FE79E838D83AE0107
:102DB000475E5F4F6F89788DCE0101960E94EA16BB
:102DC0002F813885020F131FF80110822E96E4E040
:102DD0000C949219ABE0B0E0E0EFF6E10C946819C6
:102DE0007C013B018A01FC0117821682838181FFED
:102DF000C8C1CE0101965C01F7019381F30193FDF7
:102E0000859193FF81913F01882309F453C1853255
:102E100039F493FD859193FF81913F01853229F427
:102E2000B70190E00E94DA18E7CF912C212C312CC9
:102E3000FFE1F31538F08B3211F190F4803209F193
:102E4000833229F137FC3CC020ED280F2A3050F5A1
:102E500036FE20C08AE0989E200D1124922E06C0D6
:102E60008D3291F0803371F7689430F8F30193FD5F
:102E7000859193FF81913F018111DACF21C0689440
:102E800031F8689432F8F2CF689433F8EFCF689451
:102E900034F8ECCFEAE02E9E200D1124222E689407
:102EA00035F8E4CF8E3229F436FC04C1689436F844
:102EB000DDCF8C3619F4689437F8D8CF8836B1F264
:102EC000982F9F7D95549330E0F08336A1F183379E
:102ED000C1F1833509F063C02801F2E04F0E511CA7
:102EE000F801C080D180692D70E036FC02C06FEF20
:102EF0007FEFC6010E94C4184C01689437F8820124
:102F00000AC00C5F1F4FFFE3F98388248394912C40
:102F10006501E89437F833FE2DC0522C81149104DA
:102F200071F5552009F468CFB70180E290E00E9466
:102F3000DA185A94F6CFF801808189830E5F1F4F0B
:102F4000E4CF2801F2E04F0E511CF801C080D1807F
:102F5000692D70E036FC02C06FEF7FEFC6010E9462
:102F6000CF184C018201D5CFB70180E290E00E94DA
:102F7000DA182A942814190409F0B0F7CECFF60114
:102F800037FC859137FE81916F01B70190E00E9477
:102F9000DA1851105A94F1E08F1A9108BFCF843695
:102FA00019F0893609F077C0F80137FE6BC06081EF
:102FB0007181828193810C5F1F4FF32DFF763F2E2D
:102FC00097FF09C090958095709561957F4F8F4FC1
:102FD0009F4F689437F82AE030E0A5010E940A1953
:102FE000C82ECA188C2C432C36FE0CC0E89440F82E
:102FF000C91440F434FE05C032FC03C0F32DFE7E3C
:103000004F2E892C44FE95C0FE01EC0DF11D8081F0
:10301000803309F087C0242D297E422E842D8870AC
:10302000582E43FC95C040FE8FC09C2C821418F48F
:103030002C0C922C981844FE91C0B70180E390E0CC
:103040000E94DA1842FE09C088E790E041FE02C003
:1030500088E590E0B7010E94DA18C91408F48AC024
:10306000CA94D12C9FEFC91AD90ACA0CDB1CF601ED
:1030700082916F01B70190E00E94DA18AC14BD0490
:10308000B1F74FCF60817181072E000C880B990B2F
:103090000E5F1F4F92CFD32CE894D4F82AE030E093
:1030A000853739F1232D297FD22E8F3601F148F44F
:1030B0008835A9F0F701868197812B96E2E10C947F
:1030C0008419803749F08837A9F7D4FE02C0689484
:1030D000D2F820E130E00DC06894D4F8F6CF34FE89
:1030E00003C0822F8660D82E20E132E002C028E0A3
:1030F00030E0F801D7FE0FC0608171818281938139
:103100000C5F1F4FA5010E940A19C82ECA183D2C3A
:10311000E89437F867CF6081718190E080E00E5FBE
:103120001F4FF0CF42FC02C0839478CF83948394E6
:1031300075CF842D867809F471CFF6CFB70180E280
:1031400090E00E94DA1883948214C0F3512C73CF5C
:10315000522C5818821408F46ECFF8CF842D86783C
:1031600009F47BCF8BE241FE80E247FC8DE2B701A0
:1031700090E071CFB70180E390E00E94DA189A9452
:103180006CCF8FEF9FEF99CFFC010590615070409D
:103190000110D8F7809590958E0F9F1F0895FC0120
:1031A0006150704001900110D8F7809590958E0F76
:1031B0009F1F08950F931F93CF93DF93182F092F0D
:1031C000EB018B8181FD09C01FEF0FEF812F902F45
:1031D000DF91CF911F910F91089582FF14C02E812E
:1031E0003F818C819D81281739073CF4E881F98162
:1031F000CF0101969983888310838E819F810196E8
:103200009F838E83E3CFE885F985812F0995892BEC
:10321000A1F3DACFFA01AA27283051F1203181F148
:10322000E8946F936E7F6E5F7F4F8F4F9F4FAF4FCE
:10323000B1E03ED0B4E03CD0670F781F891F9A1FE1
:10324000A11D680F791F8A1F911DA11D6A0F711D95
:10325000811D911DA11D20D009F468943F912AE0A1
:10326000269F11243019305D3193DEF6CF01089589
:10327000462F4770405D4193B3E00FD0C9F7F6CFBA
:10328000462F4F70405D4A3318F0495D31FD405282
:10329000419302D0A9F7EACFB4E0A6959795879518
:1032A00077956795BA95C9F70097610571050895F7
:1032B0009B01AC010A2E06945795479537952795A3
:1032C000BA95C9F7620F731F841F951FA01D08953B
:1032D0002F923F924F925F926F927F928F929F9226
:1032E000AF92BF92CF92DF92EF92FF920F931F9314
:1032F000CF93DF93CDB7DEB7CA1BDB0B0FB6F894C5
:10330000DEBF0FBECDBF09942A88398848885F8404
:103310006E847D848C849B84AA84B984C884DF8075
:10332000EE80FD800C811B81AA81B981CE0FD11D59
:103330000FB6F894DEBF0FBECDBFED010895F8942F
:10334000FFCF10FFFFFFFF010301FFFFFFFF00E1C1
:103350000000000000000100000000C180810000AA
:103360000000000000A2042104C304B8040905C73A
:1033700004E504000000008206B505E108E008420B
:103380005245414B4F5554005052455353204649E6
:103390005245210020202020202020202020200015
:1033A000484947482053434F524553002532640053
:1033B000256325632563202575005041555345003D
:1033C00047616D65204F7665720053636F72653A91
:0E33D0002000484947482053434F5245000013
:1074000080E189BD82E189BD09B400FEFDCF089508
:10741000C8D569F08091E9008F931092E9009DD45E
:1074200083FF01C01CD58F9187708093E900089578
:107430008EEF0090E10008220092E1000895F20131
:10744000F999FECFF2BDE1BD0895F9DFF89A80B554
:1074500008C0F5DF1FBA80BD0FB6F894FA9AF99A02
:107460000FBE31962F010895E0E0F0E085919491F0
:107470000196089580EE8BB98BEA34D01092890082
:107480008AEF8093880082E080936F0083E080938E
:107490008100E7E5F7E785913AD0E336E1F781E04F
:1074A0008093D7008AE482BF1092D8001092E20045
:1074B0001092DA001092E10080E808D019BC1EBAE0
:1074C0001092E00060D489E051D481E98093D80023
:1074D0000895A3E6B1E090E81AD08D939A95E1F76C
:1074E000089586E008D010C083E005D08F2F0FD01C
:1074F0008E2F0DD080E05E9A599809C005D085E0A6
:10750000FADF05D080FDFDCF599A5E9808958EBDB3
:107510008DB587FFFDCF8EB508958FE08221E9F705
:10752000F3DFE3E6F6E090EB5C98892FF0DF80E193
:10753000EEDF5C9A8191EBDF83E68E278F77D1F7C0
:107540009395983B89F70895E3E6F1E097FC36C000
:1075500094FC4DC092FE089596849920D1F3F8943E
:10756000C089D78520E030E080E090E4AFEFBFEF46
:10757000119689199040E0F72D01BD4F8D0127FD2F
:1075800013C0E0E0F8E011928EE7819392E4E117F6
:1075900091939AE508F092E4E334C9F7819310825D
:1075A000BFDFFE012196A0DF94DFF901FDD4205852
:1075B0003F4F040D151D9A9411F710C28301282D19
:1075C00060906C0170906B0143D019F48823C1F76F
:1075D0000895380188243CD0C9F580916A0182174A
:1075E00009F4830160906E0170906D01F4CF80E129
:1075F000982E60906E0170906D012AD059F4882306
:10760000B1F708959FEF95FC03C096FE089591E0B1
:1076100097FB890E662477248301222719D0B1F4C1
:107620008823A1F380916A0136F0881650F48217FE
:1076300030F0213003C0881520F4281710F483019E
:10764000282F60906E0170906D01E8CF3801822E76
:10765000F3014ADF3EDFC3E6D1E0E0E5F7E709905A
:107660008591081621F4E735D1F7088080104CCFBA
:10767000C9E031DFCA95E9F7D0E197FC55C094FC29
:1076800037C096FE1AC0C3E6D2E0E3E6F6E098E023
:1076900088E78E0F00840192E817E1F7884F099080
:1076A0000192E817E1F7C858DF4F9A9589F735DF5F
:1076B000C85FD340C33E49F749C0C3E6D6E0EBE517
:1076C000FAE098E08E2F885702900086E817E1F7DD
:1076D00038960A900292E817E1F73897C857D040D9
:1076E0009A9581F71ADFC850DC4FC33E41F72EC090
:1076F000A3EEB6E0E3E6F6E09AE0C6E00D90808106
:107700008025807F802582958193A336B90709F46F
:10771000B2E0E336F90709F4F2E0E336FC0771F76B
:10772000FCDEDA9529F712C0A3EEB9E0E3E6FAE051
:1077300092E00E90829180258F70802582958083C3
:10774000E336F907B1F7E9DEDA9571F7882708958E
:1077500041524455424F59D5F08D14A1C881CFD91B
:10776000F1AF000000FFFFCFCFFFFFFFFFCFCFFF44
:10777000FF0000FE067E7E06FE46565616FE0656A4
:10778000461EFE3F61E9E3FFE3EBE3FFE3EBE3FFCC
:10779000E16B3F0012011001020000084123360096
:1077A00001000000000109023E00020100803209D0
:1077B000040000010202010005240010010424025B
:1077C000040524060001070582030800FF090401DF
:1077D00000020A00000007050402100001070583EB
:0477E0000210000192
:1078000011241FBE04B714BE88E18093600010925B
:1078100060008EEF9AE09EBF8DBF222433242101A9
:107820003101410180E88AC00F928F939F931F928C
:107830000FB60F9211244F936F938091DA0080FF5F
:1078400037C023C00F920FB68F939F93EF93FF9390
:1078500088278093850080938400E0E5F1E09281A1
:10786000907261F490818917980B908309F45D9A66
:1078700091818917980B918309F4289A239411F424
:107880008315381EFF91EF9154C08091D80080FF7E
:107890000FC08091DA008E7F8093DA008091D9004A
:1078A00080FF04C0ADDD81E08EBB02C019BC1EBAF2
:1078B0008091E10080FF0BC053D280FF08C053D2FB
:1078C0008091D800806202DE19BC85E08EBB809179
:1078D000E10084FF1AC044D284FF17C091DD80917B
:1078E000D8008F7DF3DD8FEEA4DD3AD28F7E8160EC
:1078F0003DD280915301882331F48091E30087FDCC
:1079000002C081E001C084E08EBB8091E10083FF72
:107910000CC026D283FF09C087EF8BDD82E08EBBCF
:107920001092530185DD1FD22ED26F914F910F908F
:107930001F909F918F910FBE0F90189580936100BB
:1079400010926100B1E0B5BF82E085BF81EF85B9DB
:1079500087EE84B91DB8769A10BA83EF81BB82E6B0
:107960008BB982EF8AB980E58CBDBDBDA0E0E4E9AA
:10797000F7E705900D92A035E1F71D92BB30E9F7CE
:10798000000004C07C9B02C06FDD41F573DD78947C
:107990005FDE71F0ABE9B7E0E3E6F7E790E1059071
:1079A0000D929A95E1F7A059BF4FE339B9F7B9DDC8
:1079B00052D02EDD80915201807861F48FB1809594
:1079C000807F66991C9B8460982E1CDE8110BCDD34
:1079D00092FC02C0332062F747DD51F3F89489EB43
:1079E00081DD81E08093E00010926F0010928100B1
:1079F000109285001092840081E085BF15BE2E9AFA
:107A00002F9A2D9A5D9A289A0C940000A4D107C051
:107A100057D102C0C6D239F0A0D182FFFBCF85FF7B
:107A2000F7CF8091F1000895082E83E095D185FD70
:107A300007C08AD102C0B5D269F08FD180FFFBCFD9
:107A40000092F10080915201807221F45D9884E6E9
:107A50008093500108957FD182FF34C180915201FB
:107A6000807221F4289884E680935101CFDF182F8B
:107A7000853431F422248EE7382EE1DC8DE00BC111
:107A8000843511F4C3DFFACF8C34C1F38035B1F300
:107A9000843721F484E4C8DF80E0FDC0813611F42E
:107AA00089E5F9C0813429F4B1DF582EAFDF482EC3
:107AB000E5CF803711F483E5EEC0833539F4E0E596
:107AC000F7E78591B1DFE735E1F7E6C0863521F4C8
:107AD00082E3AADF80E3DFC0863761F481E3669B3F
:107AE0008E5F1C9B8F5FA0DF8FB1809582958F701A
:107AF0008F5BD1C08837A9F489DF80935201289A1F
:107B000084FD28985D9A83FD5D982E9A81FD2E98BC
:107B10002F9A82FD2F982D9A80FD2D9887FD88241D
:107B2000ADCF8A3649F48FE9E6DCC3E0F0DC7CDFD8
:107B3000CA95E1F7E9DCB0C0833731F487E874DF38
:107B400085E972DF8EE1A7C0853639F4E0E8F3E716
:107B50003ED2E058F040E0F791CF823631F489E52B
:107B600063DF80E061DF80E896C0823419F08736F9
:107B700009F07DC033244ADFD82F48DFC82F46DF05
:107B8000082F8354843008F085C0063411F4440C67
:107B9000551CF20110926F001736B9F4033489F4C2
:107BA00083E0A3DCB4DC8EB51EBC3EDF0DB42197B0
:107BB000D1F7AADC08C0063411F4859101C045DC78
:107BC00033DF2197C2F72F014AC00334A9F4E11132
:107BD00004C087DC88ED89DC91DC83DC82E085DC15
:107BE00015DF0DB48EBDCA95D9F7319691DC86DCD0
:107BF000DA9569F72F0131C00634F1F49F01F437AB
:107C0000D8F4E5D119C002DF063461F4C0FB46F0B8
:107C1000F43728F4182E81E087BFE89511243296B6
:107C2000082E0AC0043439F4DF01B370AD59B94FDE
:107C30008D93319601C00DDC21972AF7043431F47D
:107C40002F01F370FE2B49F46CDC07C0063429F4D5
:107C50002F01F901F43708F4B8D18DE0E5DE0634E0
:107C600011F45694479482E080936F0015C08237D8
:107C7000E1E049F08634E0E031F08E34E3E019F0E1
:107C8000813531F4E2E0F0E089E087BF849103C000
:107C90008B3111F08FE3C8DE83E0C7DB55D095FF51
:107CA00003C009C07ED171F058D080FFFBCF4CD00B
:107CB00002C077D139F051D080FFFBCF84E0B5DB33
:107CC0008BE743C00895E4E5F1E067E090915B0144
:107CD00080915C01913231F0913AE1F58132D1F538
:107CE0005ED181C0823271F48191805B8191844048
:107CF00089F580915D0180FD2DC0F89481E080932D
:107D0000E0007ECD803231F54AD14BD1E9F08530AB
:107D1000D9F023D083FD18C082FFF7CF04C081DEE5
:107D20008193615031F09091F3008091F200892BA2
:107D3000B1F7C6DF611549F704C033D129F08530AA
:107D400019F00BD080FFF9CF8EE79091E8008923DE
:107D50008093E800089584E068DB8091E80008954E
:107D60008091E2000895FCDF8E7F80618093E200C5
:107D7000089582E061EC09D083E061E802D084E0FC
:107D800060E842E103C080E060E042E04EDB81E079
:107D900007D01092ED006093EC004093ED00089541
:107DA0009091EB00892B8093EB00089560E0923076
:107DB00029F0913029F4E0E062E102C0E2E16EE3F3
:107DC000F1E0089580915B0188234CF402C0E9D072
:107DD000C1F3C3DF82FFFBCF73CFE3D091F3BDDFED
:107DE00080FFFBCFB1CF40916101509162014617F6
:107DF000510520F0462F611509F4A6DF50E022C09E
:107E0000D0D061F1853051F1A8DF83FD59CFA5DFD6
:107E100082FD21C080FF16C03091F3002091F20056
:107E200006C081918093F10041502F5F3F4F411573
:107E300019F028303105A8F350E02830310509F455
:107E400051E082DF4115E1F65523D1F604C0A9D0F7
:107E500029F0853019F081DF82FFF9CF31CFEBE5D2
:107E6000F1E0DFDD8193E336E1F72DDF76DF83FF9D
:107E700091C080915B0190915C01913009F170F0AB
:107E80009330F1F0953009F444C0963009F456C0AF
:107E9000983009F460C0993059F767C0823841F7CB
:107EA00080915F01C1DA2091EB001092E90077D058
:107EB0002295269521702093F1001092F10052C076
:107EC000882311F08230A1F68F71823089F680917B
:107ED0005D018823D1F420915F01277049F220933E
:107EE000E9008091EB0080FF10C0933011F480E234
:107EF0000BC080E155DF81E0880F2A95E9F7809378
:107F0000EA001092EA0088E04BDF1092E90047D0C7
:107F10002AC0882391F410915D0110680FB7F8947E
:107F20003ED050DF1ADF80FFFDCF1093E300103802
:107F300083E009F482E08EBB0FBF2CC080588230F2
:107F400048F580915D0190915E0130DF603011F164
:107F500026D049DF1FC08038E9F421D08091530139
:107F60008093F100F1DE2EDF15C0882399F4909103
:107F70005D01923078F49093530111D023DF80910A
:107F80005301882321F48091E30091E087FD94E080
:107F90009EBBEFDEE2DE83FF089580E201DF87EF24
:107FA000D4CE8EB388230895A3E6B1E0F437B8F4B5
:107FB0000ED090E40D901D9081E087BFE895329639
:107FC0009A95C1F71124E058F04085E001C083E0A4
:107FD00001D081E187BFE89507B600FCFDCF089589
:067FFA003230D7CFFBDCA2
:00000001FF
